{
  "_format": "hh-sol-artifact-1",
  "contractName": "BaseAuction",
  "sourceName": "contracts/base/BaseAuction.sol",
  "abi": [
    {
      "anonymous": false,
      "inputs": [
        {
          "indexed": true,
          "internalType": "address",
          "name": "previousOperator",
          "type": "address"
        },
        {
          "indexed": true,
          "internalType": "address",
          "name": "newOperator",
          "type": "address"
        }
      ],
      "name": "OperatorTransferred",
      "type": "event"
    },
    {
      "anonymous": false,
      "inputs": [
        {
          "indexed": true,
          "internalType": "address",
          "name": "previousOwner",
          "type": "address"
        },
        {
          "indexed": true,
          "internalType": "address",
          "name": "newOwner",
          "type": "address"
        }
      ],
      "name": "OwnershipTransferred",
      "type": "event"
    },
    {
      "inputs": [],
      "name": "artGee",
      "outputs": [
        {
          "internalType": "contract IAgERC721",
          "name": "",
          "type": "address"
        }
      ],
      "stateMutability": "view",
      "type": "function"
    },
    {
      "inputs": [
        {
          "internalType": "uint256",
          "name": "",
          "type": "uint256"
        }
      ],
      "name": "artList",
      "outputs": [
        {
          "internalType": "uint256",
          "name": "",
          "type": "uint256"
        }
      ],
      "stateMutability": "view",
      "type": "function"
    },
    {
      "inputs": [
        {
          "internalType": "uint256",
          "name": "",
          "type": "uint256"
        }
      ],
      "name": "artPercent",
      "outputs": [
        {
          "internalType": "uint256",
          "name": "",
          "type": "uint256"
        }
      ],
      "stateMutability": "view",
      "type": "function"
    },
    {
      "inputs": [],
      "name": "basePercent",
      "outputs": [
        {
          "internalType": "uint256",
          "name": "",
          "type": "uint256"
        }
      ],
      "stateMutability": "view",
      "type": "function"
    },
    {
      "inputs": [],
      "name": "feePercent",
      "outputs": [
        {
          "internalType": "uint256",
          "name": "",
          "type": "uint256"
        }
      ],
      "stateMutability": "view",
      "type": "function"
    },
    {
      "inputs": [],
      "name": "getArtList",
      "outputs": [
        {
          "internalType": "uint256[]",
          "name": "_artList",
          "type": "uint256[]"
        }
      ],
      "stateMutability": "view",
      "type": "function"
    },
    {
      "inputs": [
        {
          "internalType": "address",
          "name": "_owner",
          "type": "address"
        }
      ],
      "name": "getMyArtList",
      "outputs": [
        {
          "internalType": "uint256[]",
          "name": "",
          "type": "uint256[]"
        }
      ],
      "stateMutability": "view",
      "type": "function"
    },
    {
      "inputs": [
        {
          "internalType": "address",
          "name": "",
          "type": "address"
        },
        {
          "internalType": "uint256",
          "name": "",
          "type": "uint256"
        }
      ],
      "name": "isNotFirstAuction",
      "outputs": [
        {
          "internalType": "bool",
          "name": "",
          "type": "bool"
        }
      ],
      "stateMutability": "view",
      "type": "function"
    },
    {
      "inputs": [],
      "name": "isOperator",
      "outputs": [
        {
          "internalType": "bool",
          "name": "",
          "type": "bool"
        }
      ],
      "stateMutability": "view",
      "type": "function"
    },
    {
      "inputs": [
        {
          "internalType": "address",
          "name": "",
          "type": "address"
        },
        {
          "internalType": "uint256",
          "name": "",
          "type": "uint256"
        }
      ],
      "name": "myBidInfos",
      "outputs": [
        {
          "internalType": "uint256",
          "name": "",
          "type": "uint256"
        }
      ],
      "stateMutability": "view",
      "type": "function"
    },
    {
      "inputs": [
        {
          "internalType": "address",
          "name": "",
          "type": "address"
        },
        {
          "internalType": "address",
          "name": "",
          "type": "address"
        },
        {
          "internalType": "uint256",
          "name": "",
          "type": "uint256"
        },
        {
          "internalType": "bytes",
          "name": "",
          "type": "bytes"
        }
      ],
      "name": "onERC721Received",
      "outputs": [
        {
          "internalType": "bytes4",
          "name": "",
          "type": "bytes4"
        }
      ],
      "stateMutability": "pure",
      "type": "function"
    },
    {
      "inputs": [],
      "name": "operator",
      "outputs": [
        {
          "internalType": "address",
          "name": "",
          "type": "address"
        }
      ],
      "stateMutability": "view",
      "type": "function"
    },
    {
      "inputs": [],
      "name": "owner",
      "outputs": [
        {
          "internalType": "address",
          "name": "",
          "type": "address"
        }
      ],
      "stateMutability": "view",
      "type": "function"
    },
    {
      "inputs": [],
      "name": "platform",
      "outputs": [
        {
          "internalType": "address",
          "name": "",
          "type": "address"
        }
      ],
      "stateMutability": "view",
      "type": "function"
    },
    {
      "inputs": [],
      "name": "renounceOwnership",
      "outputs": [],
      "stateMutability": "nonpayable",
      "type": "function"
    },
    {
      "inputs": [
        {
          "internalType": "uint256",
          "name": "_feePercent",
          "type": "uint256"
        },
        {
          "internalType": "uint256[2]",
          "name": "_artPercents",
          "type": "uint256[2]"
        }
      ],
      "name": "setArtPercent",
      "outputs": [],
      "stateMutability": "nonpayable",
      "type": "function"
    },
    {
      "inputs": [
        {
          "internalType": "contract IAgERC721",
          "name": "_artGee",
          "type": "address"
        },
        {
          "internalType": "address",
          "name": "_platform",
          "type": "address"
        }
      ],
      "name": "setArtgee",
      "outputs": [],
      "stateMutability": "nonpayable",
      "type": "function"
    },
    {
      "inputs": [
        {
          "internalType": "address",
          "name": "newOperator_",
          "type": "address"
        }
      ],
      "name": "transferOperator",
      "outputs": [],
      "stateMutability": "nonpayable",
      "type": "function"
    },
    {
      "inputs": [
        {
          "internalType": "address",
          "name": "newOwner",
          "type": "address"
        }
      ],
      "name": "transferOwnership",
      "outputs": [],
      "stateMutability": "nonpayable",
      "type": "function"
    },
    {
      "stateMutability": "payable",
      "type": "receive"
    }
  ],
  "bytecode": "0x6064600381905560c060405260c8608090815260a0919091526100269060049060026100eb565b506103e860055534801561003957600080fd5b5060006100446100e7565b600080546001600160a01b0319166001600160a01b0383169081178255604051929350917f8be0079c531659141344cd1fd0a4f28419497f9722a3daafe3b4186f6b6457e0908290a3506100966100e7565b600180546001600160a01b0319166001600160a01b0392831617908190556040519116906000907f74da04524d50c64947f5dd5381ef1a4dca5cba8ed1d816243f9e48aa0b5617ed908290a3610150565b3390565b82805482825590600052602060002090810192821561012b579160200282015b8281111561012b578251829060ff1690559160200191906001019061010b565b5061013792915061013b565b5090565b5b80821115610137576000815560010161013c565b610b8d8061015f6000396000f3fe6080604052600436106101185760003560e01c8063715018a6116100a0578063b76b63ec11610064578063b76b63ec14610478578063c5ac0ded1461048d578063f2ec6fad146104a2578063f2fde38b146104cc578063fc839663146104ff5761011f565b8063715018a6146103c457806376467423146103d95780637fd6f15c146104155780638da5cb5b1461042a578063a525d1991461043f5761011f565b806329605e77116100e757806329605e77146103215780634456eda2146103545780634bde38c8146103695780635313a89c1461039a578063570ca735146103af5761011f565b80630773b15b14610124578063122e986f14610171578063150b7a02146101ae57806319e9e3c81461029e5761011f565b3661011f57005b600080fd5b34801561013057600080fd5b5061015d6004803603604081101561014757600080fd5b506001600160a01b03813516906020013561055f565b604080519115158252519081900360200190f35b34801561017d57600080fd5b506101ac6004803603604081101561019457600080fd5b506001600160a01b038135811691602001351661057f565b005b3480156101ba57600080fd5b50610281600480360360808110156101d157600080fd5b6001600160a01b0382358116926020810135909116916040820135919081019060808101606082013564010000000081111561020c57600080fd5b82018360208201111561021e57600080fd5b8035906020019184600183028401116401000000008311171561024057600080fd5b91908080601f016020809104026020016040519081016040528093929190818152602001838380828437600092019190915250929550610605945050505050565b604080516001600160e01b03199092168252519081900360200190f35b3480156102aa57600080fd5b506102d1600480360360208110156102c157600080fd5b50356001600160a01b0316610615565b60408051602080825283518183015283519192839290830191858101910280838360005b8381101561030d5781810151838201526020016102f5565b505050509050019250505060405180910390f35b34801561032d57600080fd5b506101ac6004803603602081101561034457600080fd5b50356001600160a01b0316610681565b34801561036057600080fd5b5061015d6106e5565b34801561037557600080fd5b5061037e61070b565b604080516001600160a01b039092168252519081900360200190f35b3480156103a657600080fd5b5061037e61071a565b3480156103bb57600080fd5b5061037e610729565b3480156103d057600080fd5b506101ac610738565b3480156103e557600080fd5b50610403600480360360208110156103fc57600080fd5b50356107da565b60408051918252519081900360200190f35b34801561042157600080fd5b506104036107f8565b34801561043657600080fd5b5061037e6107fe565b34801561044b57600080fd5b506104036004803603604081101561046257600080fd5b506001600160a01b03813516906020013561080d565b34801561048457600080fd5b506102d161083b565b34801561049957600080fd5b50610403610893565b3480156104ae57600080fd5b50610403600480360360208110156104c557600080fd5b5035610899565b3480156104d857600080fd5b506101ac600480360360208110156104ef57600080fd5b50356001600160a01b03166108a6565b34801561050b57600080fd5b506101ac6004803603606081101561052257600080fd5b60408051808201825283359392830192916060830191906020840190600290839083908082843760009201919091525091945061099e9350505050565b600760209081526000928352604080842090915290825290205460ff1681565b610587610a43565b6000546001600160a01b039081169116146105d7576040805162461bcd60e51b81526020600482018190526024820152600080516020610b38833981519152604482015290519081900360640190fd5b600280546001600160a01b039384166001600160a01b03199182161790915560068054929093169116179055565b630a85bd0160e11b949350505050565b6001600160a01b03811660009081526008602090815260409182902080548351818402810184019094528084526060939283018282801561067557602002820191906000526020600020905b815481526020019060010190808311610661575b50505050509050919050565b610689610a43565b6000546001600160a01b039081169116146106d9576040805162461bcd60e51b81526020600482018190526024820152600080516020610b38833981519152604482015290519081900360640190fd5b6106e281610a47565b50565b6001546000906001600160a01b03166106fc610a43565b6001600160a01b031614905090565b6006546001600160a01b031681565b6002546001600160a01b031681565b6001546001600160a01b031690565b610740610a43565b6000546001600160a01b03908116911614610790576040805162461bcd60e51b81526020600482018190526024820152600080516020610b38833981519152604482015290519081900360640190fd5b600080546040516001600160a01b03909116907f8be0079c531659141344cd1fd0a4f28419497f9722a3daafe3b4186f6b6457e0908390a3600080546001600160a01b0319169055565b600a81815481106107e757fe5b600091825260209091200154905081565b60035481565b6000546001600160a01b031690565b6008602052816000526040600020818154811061082657fe5b90600052602060002001600091509150505481565b6060600a80548060200260200160405190810160405280929190818152602001828054801561088957602002820191906000526020600020905b815481526020019060010190808311610875575b5050505050905090565b60055481565b600481815481106107e757fe5b6108ae610a43565b6000546001600160a01b039081169116146108fe576040805162461bcd60e51b81526020600482018190526024820152600080516020610b38833981519152604482015290519081900360640190fd5b6001600160a01b0381166109435760405162461bcd60e51b8152600401808060200182810382526026815260200180610ae56026913960400191505060405180910390fd5b600080546040516001600160a01b03808516939216917f8be0079c531659141344cd1fd0a4f28419497f9722a3daafe3b4186f6b6457e091a3600080546001600160a01b0319166001600160a01b0392909216919091179055565b6109a6610a43565b6000546001600160a01b039081169116146109f6576040805162461bcd60e51b81526020600482018190526024820152600080516020610b38833981519152604482015290519081900360640190fd5b8115610a025760038290555b805160048054600090610a1157fe5b60009182526020909120015580600160200201516004600181548110610a3357fe5b6000918252602090912001555050565b3390565b6001600160a01b038116610a8c5760405162461bcd60e51b815260040180806020018281038252602d815260200180610b0b602d913960400191505060405180910390fd5b6040516001600160a01b038216906000907f74da04524d50c64947f5dd5381ef1a4dca5cba8ed1d816243f9e48aa0b5617ed908290a3600180546001600160a01b0319166001600160a01b039290921691909117905556fe4f776e61626c653a206e6577206f776e657220697320746865207a65726f20616464726573736f70657261746f723a207a65726f206164647265737320676976656e20666f72206e6577206f70657261746f724f776e61626c653a2063616c6c6572206973206e6f7420746865206f776e6572a2646970667358221220dbed655c437b327d5ef3d7ca57abb38c02313a51a25f22ed2686dcf449fdb98464736f6c634300060c0033",
  "linkReferences": {},
  "deployedLinkReferences": {}
}