{
  "_format": "hh-sol-artifact-1",
  "contractName": "DigitalSource",
  "sourceName": "contracts/DigitalSource.sol",
  "abi": [
    {
      "anonymous": false,
      "inputs": [
        {
          "indexed": false,
          "internalType": "uint256",
          "name": "_artId",
          "type": "uint256"
        },
        {
          "indexed": false,
          "internalType": "address",
          "name": "_creator",
          "type": "address"
        },
        {
          "indexed": false,
          "internalType": "address[]",
          "name": "_assistants",
          "type": "address[]"
        },
        {
          "indexed": false,
          "internalType": "uint256[]",
          "name": "_benefits",
          "type": "uint256[]"
        },
        {
          "indexed": false,
          "internalType": "uint256",
          "name": "_totalEdition",
          "type": "uint256"
        },
        {
          "indexed": false,
          "internalType": "string",
          "name": "_uri",
          "type": "string"
        }
      ],
      "name": "CreateDigitalArt",
      "type": "event"
    },
    {
      "anonymous": false,
      "inputs": [
        {
          "indexed": true,
          "internalType": "address",
          "name": "previousOperator",
          "type": "address"
        },
        {
          "indexed": true,
          "internalType": "address",
          "name": "newOperator",
          "type": "address"
        }
      ],
      "name": "OperatorTransferred",
      "type": "event"
    },
    {
      "anonymous": false,
      "inputs": [
        {
          "indexed": true,
          "internalType": "address",
          "name": "previousOwner",
          "type": "address"
        },
        {
          "indexed": true,
          "internalType": "address",
          "name": "newOwner",
          "type": "address"
        }
      ],
      "name": "OwnershipTransferred",
      "type": "event"
    },
    {
      "inputs": [
        {
          "internalType": "uint256",
          "name": "",
          "type": "uint256"
        }
      ],
      "name": "artIds",
      "outputs": [
        {
          "internalType": "uint256",
          "name": "",
          "type": "uint256"
        }
      ],
      "stateMutability": "view",
      "type": "function"
    },
    {
      "inputs": [
        {
          "internalType": "address",
          "name": "_creator",
          "type": "address"
        },
        {
          "internalType": "address[]",
          "name": "_assistants",
          "type": "address[]"
        },
        {
          "internalType": "uint256[]",
          "name": "_benefits",
          "type": "uint256[]"
        },
        {
          "internalType": "uint256",
          "name": "_totalEdition",
          "type": "uint256"
        },
        {
          "internalType": "string",
          "name": "_uri",
          "type": "string"
        }
      ],
      "name": "createDigitalArt",
      "outputs": [
        {
          "internalType": "uint256",
          "name": "",
          "type": "uint256"
        }
      ],
      "stateMutability": "nonpayable",
      "type": "function"
    },
    {
      "inputs": [],
      "name": "getArtIds",
      "outputs": [
        {
          "internalType": "uint256[]",
          "name": "",
          "type": "uint256[]"
        }
      ],
      "stateMutability": "view",
      "type": "function"
    },
    {
      "inputs": [
        {
          "internalType": "uint256",
          "name": "_artId",
          "type": "uint256"
        }
      ],
      "name": "getDigitalArt",
      "outputs": [
        {
          "internalType": "uint256",
          "name": "id",
          "type": "uint256"
        },
        {
          "internalType": "uint256",
          "name": "totalEdition",
          "type": "uint256"
        },
        {
          "internalType": "uint256",
          "name": "currentEdition",
          "type": "uint256"
        },
        {
          "internalType": "address",
          "name": "creator",
          "type": "address"
        },
        {
          "internalType": "address[]",
          "name": "assistants",
          "type": "address[]"
        },
        {
          "internalType": "uint256[]",
          "name": "benefits",
          "type": "uint256[]"
        },
        {
          "internalType": "string",
          "name": "uri",
          "type": "string"
        }
      ],
      "stateMutability": "view",
      "type": "function"
    },
    {
      "inputs": [
        {
          "internalType": "uint256",
          "name": "_artId",
          "type": "uint256"
        }
      ],
      "name": "getDigitalCreator",
      "outputs": [
        {
          "internalType": "address[]",
          "name": "creators",
          "type": "address[]"
        },
        {
          "internalType": "uint256[]",
          "name": "benefits",
          "type": "uint256[]"
        }
      ],
      "stateMutability": "view",
      "type": "function"
    },
    {
      "inputs": [
        {
          "internalType": "uint256",
          "name": "_artId",
          "type": "uint256"
        },
        {
          "internalType": "uint256",
          "name": "_count",
          "type": "uint256"
        }
      ],
      "name": "increaseDigitalArtEdition",
      "outputs": [],
      "stateMutability": "nonpayable",
      "type": "function"
    },
    {
      "inputs": [],
      "name": "isOperator",
      "outputs": [
        {
          "internalType": "bool",
          "name": "",
          "type": "bool"
        }
      ],
      "stateMutability": "view",
      "type": "function"
    },
    {
      "inputs": [
        {
          "internalType": "string",
          "name": "",
          "type": "string"
        }
      ],
      "name": "metadataExist",
      "outputs": [
        {
          "internalType": "bool",
          "name": "",
          "type": "bool"
        }
      ],
      "stateMutability": "view",
      "type": "function"
    },
    {
      "inputs": [],
      "name": "operator",
      "outputs": [
        {
          "internalType": "address",
          "name": "",
          "type": "address"
        }
      ],
      "stateMutability": "view",
      "type": "function"
    },
    {
      "inputs": [],
      "name": "owner",
      "outputs": [
        {
          "internalType": "address",
          "name": "",
          "type": "address"
        }
      ],
      "stateMutability": "view",
      "type": "function"
    },
    {
      "inputs": [],
      "name": "renounceOwnership",
      "outputs": [],
      "stateMutability": "nonpayable",
      "type": "function"
    },
    {
      "inputs": [
        {
          "internalType": "address",
          "name": "newOperator_",
          "type": "address"
        }
      ],
      "name": "transferOperator",
      "outputs": [],
      "stateMutability": "nonpayable",
      "type": "function"
    },
    {
      "inputs": [
        {
          "internalType": "address",
          "name": "newOwner",
          "type": "address"
        }
      ],
      "name": "transferOwnership",
      "outputs": [],
      "stateMutability": "nonpayable",
      "type": "function"
    }
  ],
  "bytecode": "0x608060405234801561001057600080fd5b50600061001b6100be565b600080546001600160a01b0319166001600160a01b0383169081178255604051929350917f8be0079c531659141344cd1fd0a4f28419497f9722a3daafe3b4186f6b6457e0908290a35061006d6100be565b600180546001600160a01b0319166001600160a01b0392831617908190556040519116906000907f74da04524d50c64947f5dd5381ef1a4dca5cba8ed1d816243f9e48aa0b5617ed908290a36100c2565b3390565b611346806100d16000396000f3fe608060405234801561001057600080fd5b50600436106100cf5760003560e01c80636e4ce25c1161008c578063b727985a11610066578063b727985a1461053b578063bd9a5d1b14610558578063f2fde38b146105fc578063fc2cc2ef14610622576100cf565b80636e4ce25c146103e7578063715018a61461052b5780638da5cb5b14610533576100cf565b80631b34e194146100d457806329605e77146102a657806331bbb97c146102ce5780634456eda21461038457806356b28aae146103a0578063570ca735146103c3575b600080fd5b610294600480360360a08110156100ea57600080fd5b6001600160a01b038235169190810190604081016020820135600160201b81111561011457600080fd5b82018360208201111561012657600080fd5b803590602001918460208302840111600160201b8311171561014757600080fd5b9190808060200260200160405190810160405280939291908181526020018383602002808284376000920191909152509295949360208101935035915050600160201b81111561019657600080fd5b8201836020820111156101a857600080fd5b803590602001918460208302840111600160201b831117156101c957600080fd5b91908080602002602001604051908101604052809392919081815260200183836020028082843760009201919091525092958435959094909350604081019250602001359050600160201b81111561022057600080fd5b82018360208201111561023257600080fd5b803590602001918460018302840111600160201b8311171561025357600080fd5b91908080601f01602080910402602001604051908101604052809392919081815260200183838082843760009201919091525092955061067a945050505050565b60408051918252519081900360200190f35b6102cc600480360360208110156102bc57600080fd5b50356001600160a01b03166109fb565b005b6102eb600480360360208110156102e457600080fd5b5035610a71565b604051808060200180602001838103835285818151815260200191508051906020019060200280838360005b8381101561032f578181015183820152602001610317565b50505050905001838103825284818151815260200191508051906020019060200280838360005b8381101561036e578181015183820152602001610356565b5050505090500194505050505060405180910390f35b61038c610b87565b604080519115158252519081900360200190f35b6102cc600480360360408110156103b657600080fd5b5080359060200135610bad565b6103cb610c13565b604080516001600160a01b039092168252519081900360200190f35b610404600480360360208110156103fd57600080fd5b5035610c22565b60405180888152602001878152602001868152602001856001600160a01b03168152602001806020018060200180602001848103845287818151815260200191508051906020019060200280838360005b8381101561046d578181015183820152602001610455565b50505050905001848103835286818151815260200191508051906020019060200280838360005b838110156104ac578181015183820152602001610494565b50505050905001848103825285818151815260200191508051906020019080838360005b838110156104e85781810151838201526020016104d0565b50505050905090810190601f1680156105155780820380516001836020036101000a031916815260200191505b509a505050505050505050505060405180910390f35b6102cc610e02565b6103cb610eb6565b6102946004803603602081101561055157600080fd5b5035610ec5565b61038c6004803603602081101561056e57600080fd5b810190602081018135600160201b81111561058857600080fd5b82018360208201111561059a57600080fd5b803590602001918460018302840111600160201b831117156105bb57600080fd5b91908080601f016020809104026020016040519081016040528093929190818152602001838380828437600092019190915250929550610ee3945050505050565b6102cc6004803603602081101561061257600080fd5b50356001600160a01b0316610f03565b61062a61100d565b60408051602080825283518183015283519192839290830191858101910280838360005b8381101561066657818101518382015260200161064e565b505050509050019250505060405180910390f35b6001546000906001600160a01b031633146106c65760405162461bcd60e51b81526004018080602001828103825260248152602001806112ed6024913960400191505060405180910390fd5b6004546040518351612710909201916003918591819060208401908083835b602083106107045780518252601f1990920191602091820191016106e5565b51815160209384036101000a600019018019909216911617905292019485525060405193849003019092205460ff1615915061077b9050576040805162461bcd60e51b815260206004820152600f60248201526e4d657461646174612065786973742160881b604482015290519081900360640190fd5b60016003846040518082805190602001908083835b602083106107af5780518252601f199092019160209182019101610790565b51815160209384036101000a600019018019909216911617905292019485525060408051948590038201909420805460ff1916951515959095179094555050600083815260028352206003810180546001600160a01b0319166001600160a01b038b161790558281558751909161082d9160048401918a0190611106565b508551610843906005830190602089019061116b565b50835161085990600683019060208701906111b2565b50600180820186905560006002830181905560048054928301815581527f8a35acfbc15ff81a39ae7d344fd709f28e8600b4aa8c65c6b64bfe7fe36bd19b909101839055604080518481526001600160a01b038b166020828101919091526080820189905260c09282018381528b51938301939093528a517fca661f7106d32f18a4682e0601501a3b009c1ef04e4e0359d1161c1a9de1c0409487948e948e948e948e948e9492606085019260a086019260e08701928b81019202908190849084905b8381101561093457818101518382015260200161091c565b50505050905001848103835287818151815260200191508051906020019060200280838360005b8381101561097357818101518382015260200161095b565b50505050905001848103825285818151815260200191508051906020019080838360005b838110156109af578181015183820152602001610997565b50505050905090810190601f1680156109dc5780820380516001836020036101000a031916815260200191505b50995050505050505050505060405180910390a1509695505050505050565b610a03611065565b6000546001600160a01b03908116911614610a65576040805162461bcd60e51b815260206004820181905260248201527f4f776e61626c653a2063616c6c6572206973206e6f7420746865206f776e6572604482015290519081900360640190fd5b610a6e81611069565b50565b600081815260026020526040812060038101546060805190938493926001600160a01b031691849190610aa057fe5b60200260200101906001600160a01b031690816001600160a01b03168152505060005b6004820154811015610b2b57816004018181548110610ade57fe5b9060005260206000200160009054906101000a90046001600160a01b0316848260010181518110610b0b57fe5b6001600160a01b0390921660209283029190910190910152600101610ac3565b5080600501805480602002602001604051908101604052809291908181526020018280548015610b7a57602002820191906000526020600020905b815481526020019060010190808311610b66575b5050505050915050915091565b6001546000906001600160a01b0316610b9e611065565b6001600160a01b031614905090565b6001546001600160a01b03163314610bf65760405162461bcd60e51b81526004018080602001828103825260248152602001806112ed6024913960400191505060405180910390fd5b600091825260026020819052604090922090910180549091019055565b6001546001600160a01b031690565b6000806000806060806060610c3561121f565b600089815260026020818152604092839020835160e08101855281548152600182015481840152928101548385015260038101546001600160a01b03166060840152600481018054855181850281018501909652808652939491936080860193830182828015610cce57602002820191906000526020600020905b81546001600160a01b03168152600190910190602001808311610cb0575b5050505050815260200160058201805480602002602001604051908101604052809291908181526020018280548015610d2657602002820191906000526020600020905b815481526020019060010190808311610d12575b505050918352505060068201805460408051602060026001851615610100026000190190941693909304601f8101849004840282018401909252818152938201939291830182828015610dba5780601f10610d8f57610100808354040283529160200191610dba565b820191906000526020600020905b815481529060010190602001808311610d9d57829003601f168201915b5050505050815250509050806000015181602001518260400151836060015184608001518560a001518660c00151975097509750975097509750975050919395979092949650565b610e0a611065565b6000546001600160a01b03908116911614610e6c576040805162461bcd60e51b815260206004820181905260248201527f4f776e61626c653a2063616c6c6572206973206e6f7420746865206f776e6572604482015290519081900360640190fd5b600080546040516001600160a01b03909116907f8be0079c531659141344cd1fd0a4f28419497f9722a3daafe3b4186f6b6457e0908390a3600080546001600160a01b0319169055565b6000546001600160a01b031690565b60048181548110610ed257fe5b600091825260209091200154905081565b805160208183018101805160038252928201919093012091525460ff1681565b610f0b611065565b6000546001600160a01b03908116911614610f6d576040805162461bcd60e51b815260206004820181905260248201527f4f776e61626c653a2063616c6c6572206973206e6f7420746865206f776e6572604482015290519081900360640190fd5b6001600160a01b038116610fb25760405162461bcd60e51b815260040180806020018281038252602681526020018061129a6026913960400191505060405180910390fd5b600080546040516001600160a01b03808516939216917f8be0079c531659141344cd1fd0a4f28419497f9722a3daafe3b4186f6b6457e091a3600080546001600160a01b0319166001600160a01b0392909216919091179055565b6060600480548060200260200160405190810160405280929190818152602001828054801561105b57602002820191906000526020600020905b815481526020019060010190808311611047575b5050505050905090565b3390565b6001600160a01b0381166110ae5760405162461bcd60e51b815260040180806020018281038252602d8152602001806112c0602d913960400191505060405180910390fd5b6040516001600160a01b038216906000907f74da04524d50c64947f5dd5381ef1a4dca5cba8ed1d816243f9e48aa0b5617ed908290a3600180546001600160a01b0319166001600160a01b0392909216919091179055565b82805482825590600052602060002090810192821561115b579160200282015b8281111561115b57825182546001600160a01b0319166001600160a01b03909116178255602090920191600190910190611126565b50611167929150611265565b5090565b8280548282559060005260206000209081019282156111a6579160200282015b828111156111a657825182559160200191906001019061118b565b50611167929150611284565b828054600181600116156101000203166002900490600052602060002090601f016020900481019282601f106111f357805160ff19168380011785556111a6565b828001600101855582156111a657918201828111156111a657825182559160200191906001019061118b565b6040518060e0016040528060008152602001600081526020016000815260200160006001600160a01b031681526020016060815260200160608152602001606081525090565b5b808211156111675780546001600160a01b0319168155600101611266565b5b80821115611167576000815560010161128556fe4f776e61626c653a206e6577206f776e657220697320746865207a65726f20616464726573736f70657261746f723a207a65726f206164647265737320676976656e20666f72206e6577206f70657261746f726f70657261746f723a2063616c6c6572206973206e6f7420746865206f70657261746f72a2646970667358221220fabc29b02b4926768471e57b8f41b0dacc86dcd55bb109b8bb5492d08e427e3e64736f6c634300060c0033",
  "linkReferences": {},
  "deployedLinkReferences": {}
}