{
  "_format": "hh-sol-artifact-1",
  "contractName": "EnglishAuction",
  "sourceName": "contracts/EnglishAuction.sol",
  "abi": [
    {
      "inputs": [
        {
          "internalType": "contract IAgERC721",
          "name": "_artGee",
          "type": "address"
        },
        {
          "internalType": "address",
          "name": "_platform",
          "type": "address"
        }
      ],
      "stateMutability": "nonpayable",
      "type": "constructor"
    },
    {
      "anonymous": false,
      "inputs": [
        {
          "indexed": true,
          "internalType": "uint256",
          "name": "_auctionId",
          "type": "uint256"
        },
        {
          "indexed": false,
          "internalType": "address",
          "name": "_token",
          "type": "address"
        },
        {
          "indexed": false,
          "internalType": "uint256",
          "name": "_tokenId",
          "type": "uint256"
        },
        {
          "indexed": false,
          "internalType": "address",
          "name": "_seller",
          "type": "address"
        },
        {
          "indexed": false,
          "internalType": "uint256",
          "name": "_openingBid",
          "type": "uint256"
        },
        {
          "indexed": false,
          "internalType": "uint256",
          "name": "_bidIncrements",
          "type": "uint256"
        },
        {
          "indexed": false,
          "internalType": "uint256",
          "name": "_startTime",
          "type": "uint256"
        },
        {
          "indexed": false,
          "internalType": "uint256",
          "name": "_expirationTime",
          "type": "uint256"
        },
        {
          "indexed": false,
          "internalType": "uint32",
          "name": "_auctionStatus",
          "type": "uint32"
        }
      ],
      "name": "Auction",
      "type": "event"
    },
    {
      "anonymous": false,
      "inputs": [
        {
          "indexed": true,
          "internalType": "uint256",
          "name": "_auctionId",
          "type": "uint256"
        },
        {
          "indexed": false,
          "internalType": "address",
          "name": "_bidder",
          "type": "address"
        },
        {
          "indexed": false,
          "internalType": "uint256",
          "name": "_bidPrice",
          "type": "uint256"
        },
        {
          "indexed": false,
          "internalType": "uint256",
          "name": "_bidCount",
          "type": "uint256"
        },
        {
          "indexed": false,
          "internalType": "uint256",
          "name": "_expirationTime",
          "type": "uint256"
        },
        {
          "indexed": false,
          "internalType": "uint32",
          "name": "_auctionStatus",
          "type": "uint32"
        }
      ],
      "name": "Bid",
      "type": "event"
    },
    {
      "anonymous": false,
      "inputs": [
        {
          "indexed": true,
          "internalType": "uint256",
          "name": "_auctionId",
          "type": "uint256"
        },
        {
          "indexed": false,
          "internalType": "address",
          "name": "_seller",
          "type": "address"
        },
        {
          "indexed": false,
          "internalType": "uint256",
          "name": "_bidPrice",
          "type": "uint256"
        },
        {
          "indexed": false,
          "internalType": "uint32",
          "name": "_auctionStatus",
          "type": "uint32"
        },
        {
          "indexed": false,
          "internalType": "uint256",
          "name": "_bidCount",
          "type": "uint256"
        }
      ],
      "name": "Cancel",
      "type": "event"
    },
    {
      "anonymous": false,
      "inputs": [
        {
          "indexed": false,
          "internalType": "uint256",
          "name": "_extendTime",
          "type": "uint256"
        },
        {
          "indexed": false,
          "internalType": "uint256",
          "name": "_reverseTime",
          "type": "uint256"
        }
      ],
      "name": "LastParam",
      "type": "event"
    },
    {
      "anonymous": false,
      "inputs": [
        {
          "indexed": true,
          "internalType": "address",
          "name": "previousOperator",
          "type": "address"
        },
        {
          "indexed": true,
          "internalType": "address",
          "name": "newOperator",
          "type": "address"
        }
      ],
      "name": "OperatorTransferred",
      "type": "event"
    },
    {
      "anonymous": false,
      "inputs": [
        {
          "indexed": true,
          "internalType": "address",
          "name": "previousOwner",
          "type": "address"
        },
        {
          "indexed": true,
          "internalType": "address",
          "name": "newOwner",
          "type": "address"
        }
      ],
      "name": "OwnershipTransferred",
      "type": "event"
    },
    {
      "anonymous": false,
      "inputs": [
        {
          "indexed": false,
          "internalType": "address",
          "name": "account",
          "type": "address"
        }
      ],
      "name": "Paused",
      "type": "event"
    },
    {
      "anonymous": false,
      "inputs": [
        {
          "indexed": true,
          "internalType": "uint256",
          "name": "_auctionId",
          "type": "uint256"
        },
        {
          "indexed": false,
          "internalType": "uint256",
          "name": "_bidPrice",
          "type": "uint256"
        },
        {
          "indexed": false,
          "internalType": "uint256",
          "name": "_openingBid",
          "type": "uint256"
        },
        {
          "indexed": false,
          "internalType": "uint256",
          "name": "_bidIncrements",
          "type": "uint256"
        },
        {
          "indexed": false,
          "internalType": "uint256",
          "name": "_startTime",
          "type": "uint256"
        },
        {
          "indexed": false,
          "internalType": "uint256",
          "name": "_expirationTime",
          "type": "uint256"
        },
        {
          "indexed": false,
          "internalType": "uint32",
          "name": "_auctionStatus",
          "type": "uint32"
        }
      ],
      "name": "ReAuction",
      "type": "event"
    },
    {
      "anonymous": false,
      "inputs": [
        {
          "indexed": true,
          "internalType": "uint256",
          "name": "_auctionId",
          "type": "uint256"
        },
        {
          "indexed": false,
          "internalType": "address",
          "name": "_bidder",
          "type": "address"
        },
        {
          "indexed": false,
          "internalType": "uint256",
          "name": "_bidPrice",
          "type": "uint256"
        },
        {
          "indexed": false,
          "internalType": "uint32",
          "name": "_auctionStatus",
          "type": "uint32"
        },
        {
          "indexed": false,
          "internalType": "uint256",
          "name": "_bidCount",
          "type": "uint256"
        }
      ],
      "name": "Reverse",
      "type": "event"
    },
    {
      "anonymous": false,
      "inputs": [
        {
          "indexed": true,
          "internalType": "uint256",
          "name": "_auctionId",
          "type": "uint256"
        },
        {
          "indexed": false,
          "internalType": "address",
          "name": "_seller",
          "type": "address"
        },
        {
          "indexed": false,
          "internalType": "address",
          "name": "_bidder",
          "type": "address"
        },
        {
          "indexed": false,
          "internalType": "uint256",
          "name": "_bidPrice",
          "type": "uint256"
        },
        {
          "indexed": false,
          "internalType": "uint32",
          "name": "_auctionStatus",
          "type": "uint32"
        },
        {
          "indexed": false,
          "internalType": "uint256",
          "name": "_bidCount",
          "type": "uint256"
        }
      ],
      "name": "Selling",
      "type": "event"
    },
    {
      "anonymous": false,
      "inputs": [
        {
          "indexed": false,
          "internalType": "address",
          "name": "account",
          "type": "address"
        }
      ],
      "name": "Unpaused",
      "type": "event"
    },
    {
      "anonymous": false,
      "inputs": [
        {
          "indexed": true,
          "internalType": "uint256",
          "name": "_auctionId",
          "type": "uint256"
        },
        {
          "indexed": false,
          "internalType": "address",
          "name": "_seller",
          "type": "address"
        },
        {
          "indexed": false,
          "internalType": "address",
          "name": "_bidder",
          "type": "address"
        },
        {
          "indexed": false,
          "internalType": "uint256",
          "name": "_bidPrice",
          "type": "uint256"
        },
        {
          "indexed": false,
          "internalType": "uint32",
          "name": "_auctionStatus",
          "type": "uint32"
        },
        {
          "indexed": false,
          "internalType": "uint256",
          "name": "_bidCount",
          "type": "uint256"
        }
      ],
      "name": "Withdraw",
      "type": "event"
    },
    {
      "inputs": [],
      "name": "artGee",
      "outputs": [
        {
          "internalType": "contract IAgERC721",
          "name": "",
          "type": "address"
        }
      ],
      "stateMutability": "view",
      "type": "function"
    },
    {
      "inputs": [
        {
          "internalType": "uint256",
          "name": "",
          "type": "uint256"
        }
      ],
      "name": "artList",
      "outputs": [
        {
          "internalType": "uint256",
          "name": "",
          "type": "uint256"
        }
      ],
      "stateMutability": "view",
      "type": "function"
    },
    {
      "inputs": [
        {
          "internalType": "uint256",
          "name": "",
          "type": "uint256"
        }
      ],
      "name": "artPercent",
      "outputs": [
        {
          "internalType": "uint256",
          "name": "",
          "type": "uint256"
        }
      ],
      "stateMutability": "view",
      "type": "function"
    },
    {
      "inputs": [
        {
          "internalType": "address",
          "name": "_token",
          "type": "address"
        },
        {
          "internalType": "uint256",
          "name": "_tokenId",
          "type": "uint256"
        },
        {
          "internalType": "uint256",
          "name": "_openingBid",
          "type": "uint256"
        },
        {
          "internalType": "uint256",
          "name": "_bidIncrements",
          "type": "uint256"
        },
        {
          "internalType": "uint256",
          "name": "_reservePrice",
          "type": "uint256"
        },
        {
          "internalType": "uint256",
          "name": "_startTime",
          "type": "uint256"
        },
        {
          "internalType": "uint256",
          "name": "_expirationTime",
          "type": "uint256"
        }
      ],
      "name": "auction",
      "outputs": [],
      "stateMutability": "nonpayable",
      "type": "function"
    },
    {
      "inputs": [],
      "name": "basePercent",
      "outputs": [
        {
          "internalType": "uint256",
          "name": "",
          "type": "uint256"
        }
      ],
      "stateMutability": "view",
      "type": "function"
    },
    {
      "inputs": [
        {
          "internalType": "uint256",
          "name": "_auctionId",
          "type": "uint256"
        }
      ],
      "name": "bid",
      "outputs": [],
      "stateMutability": "payable",
      "type": "function"
    },
    {
      "inputs": [
        {
          "internalType": "uint256",
          "name": "",
          "type": "uint256"
        }
      ],
      "name": "bidInfos",
      "outputs": [
        {
          "internalType": "address",
          "name": "token",
          "type": "address"
        },
        {
          "internalType": "uint256",
          "name": "tokenId",
          "type": "uint256"
        },
        {
          "internalType": "address",
          "name": "seller",
          "type": "address"
        },
        {
          "internalType": "address",
          "name": "bidder",
          "type": "address"
        },
        {
          "internalType": "uint256",
          "name": "openingBid",
          "type": "uint256"
        },
        {
          "internalType": "uint256",
          "name": "reservePrice",
          "type": "uint256"
        },
        {
          "internalType": "uint256",
          "name": "bidIncrements",
          "type": "uint256"
        },
        {
          "internalType": "uint256",
          "name": "bidPrice",
          "type": "uint256"
        },
        {
          "internalType": "uint256",
          "name": "bidCount",
          "type": "uint256"
        },
        {
          "internalType": "uint256",
          "name": "startTime",
          "type": "uint256"
        },
        {
          "internalType": "uint32",
          "name": "auctionStatus",
          "type": "uint32"
        },
        {
          "internalType": "uint256",
          "name": "expirationTime",
          "type": "uint256"
        }
      ],
      "stateMutability": "view",
      "type": "function"
    },
    {
      "inputs": [
        {
          "internalType": "uint256",
          "name": "_auctionId",
          "type": "uint256"
        }
      ],
      "name": "bidderReverse",
      "outputs": [],
      "stateMutability": "nonpayable",
      "type": "function"
    },
    {
      "inputs": [
        {
          "internalType": "uint256",
          "name": "_auctionId",
          "type": "uint256"
        }
      ],
      "name": "cancel",
      "outputs": [],
      "stateMutability": "nonpayable",
      "type": "function"
    },
    {
      "inputs": [],
      "name": "extendTime",
      "outputs": [
        {
          "internalType": "uint256",
          "name": "",
          "type": "uint256"
        }
      ],
      "stateMutability": "view",
      "type": "function"
    },
    {
      "inputs": [],
      "name": "feePercent",
      "outputs": [
        {
          "internalType": "uint256",
          "name": "",
          "type": "uint256"
        }
      ],
      "stateMutability": "view",
      "type": "function"
    },
    {
      "inputs": [],
      "name": "getArtList",
      "outputs": [
        {
          "internalType": "uint256[]",
          "name": "_artList",
          "type": "uint256[]"
        }
      ],
      "stateMutability": "view",
      "type": "function"
    },
    {
      "inputs": [
        {
          "internalType": "uint256",
          "name": "_auctionId",
          "type": "uint256"
        }
      ],
      "name": "getCurrentPrice",
      "outputs": [
        {
          "internalType": "uint256",
          "name": "_nowBidPrice",
          "type": "uint256"
        }
      ],
      "stateMutability": "view",
      "type": "function"
    },
    {
      "inputs": [
        {
          "internalType": "address",
          "name": "_owner",
          "type": "address"
        }
      ],
      "name": "getMyArtList",
      "outputs": [
        {
          "internalType": "uint256[]",
          "name": "",
          "type": "uint256[]"
        }
      ],
      "stateMutability": "view",
      "type": "function"
    },
    {
      "inputs": [
        {
          "internalType": "address",
          "name": "",
          "type": "address"
        },
        {
          "internalType": "uint256",
          "name": "",
          "type": "uint256"
        }
      ],
      "name": "isNotFirstAuction",
      "outputs": [
        {
          "internalType": "bool",
          "name": "",
          "type": "bool"
        }
      ],
      "stateMutability": "view",
      "type": "function"
    },
    {
      "inputs": [],
      "name": "isOperator",
      "outputs": [
        {
          "internalType": "bool",
          "name": "",
          "type": "bool"
        }
      ],
      "stateMutability": "view",
      "type": "function"
    },
    {
      "inputs": [
        {
          "internalType": "address",
          "name": "",
          "type": "address"
        },
        {
          "internalType": "uint256",
          "name": "",
          "type": "uint256"
        }
      ],
      "name": "myBidInfos",
      "outputs": [
        {
          "internalType": "uint256",
          "name": "",
          "type": "uint256"
        }
      ],
      "stateMutability": "view",
      "type": "function"
    },
    {
      "inputs": [
        {
          "internalType": "address",
          "name": "",
          "type": "address"
        },
        {
          "internalType": "address",
          "name": "",
          "type": "address"
        },
        {
          "internalType": "uint256",
          "name": "",
          "type": "uint256"
        },
        {
          "internalType": "bytes",
          "name": "",
          "type": "bytes"
        }
      ],
      "name": "onERC721Received",
      "outputs": [
        {
          "internalType": "bytes4",
          "name": "",
          "type": "bytes4"
        }
      ],
      "stateMutability": "pure",
      "type": "function"
    },
    {
      "inputs": [],
      "name": "operator",
      "outputs": [
        {
          "internalType": "address",
          "name": "",
          "type": "address"
        }
      ],
      "stateMutability": "view",
      "type": "function"
    },
    {
      "inputs": [],
      "name": "owner",
      "outputs": [
        {
          "internalType": "address",
          "name": "",
          "type": "address"
        }
      ],
      "stateMutability": "view",
      "type": "function"
    },
    {
      "inputs": [],
      "name": "paused",
      "outputs": [
        {
          "internalType": "bool",
          "name": "",
          "type": "bool"
        }
      ],
      "stateMutability": "view",
      "type": "function"
    },
    {
      "inputs": [],
      "name": "platform",
      "outputs": [
        {
          "internalType": "address",
          "name": "",
          "type": "address"
        }
      ],
      "stateMutability": "view",
      "type": "function"
    },
    {
      "inputs": [
        {
          "internalType": "uint256",
          "name": "_auctionId",
          "type": "uint256"
        },
        {
          "internalType": "uint256",
          "name": "_openingBid",
          "type": "uint256"
        },
        {
          "internalType": "uint256",
          "name": "_bidIncrements",
          "type": "uint256"
        },
        {
          "internalType": "uint256",
          "name": "_reservePrice",
          "type": "uint256"
        },
        {
          "internalType": "uint256",
          "name": "_startTime",
          "type": "uint256"
        },
        {
          "internalType": "uint256",
          "name": "_expirationTime",
          "type": "uint256"
        }
      ],
      "name": "reAuction",
      "outputs": [],
      "stateMutability": "nonpayable",
      "type": "function"
    },
    {
      "inputs": [],
      "name": "renounceOwnership",
      "outputs": [],
      "stateMutability": "nonpayable",
      "type": "function"
    },
    {
      "inputs": [],
      "name": "reverseTime",
      "outputs": [
        {
          "internalType": "uint256",
          "name": "",
          "type": "uint256"
        }
      ],
      "stateMutability": "view",
      "type": "function"
    },
    {
      "inputs": [
        {
          "internalType": "uint256",
          "name": "_auctionId",
          "type": "uint256"
        }
      ],
      "name": "sellingSettlementPrice",
      "outputs": [],
      "stateMutability": "nonpayable",
      "type": "function"
    },
    {
      "inputs": [
        {
          "internalType": "uint256",
          "name": "_feePercent",
          "type": "uint256"
        },
        {
          "internalType": "uint256[2]",
          "name": "_artPercents",
          "type": "uint256[2]"
        }
      ],
      "name": "setArtPercent",
      "outputs": [],
      "stateMutability": "nonpayable",
      "type": "function"
    },
    {
      "inputs": [
        {
          "internalType": "contract IAgERC721",
          "name": "_artGee",
          "type": "address"
        },
        {
          "internalType": "address",
          "name": "_platform",
          "type": "address"
        }
      ],
      "name": "setArtgee",
      "outputs": [],
      "stateMutability": "nonpayable",
      "type": "function"
    },
    {
      "inputs": [],
      "name": "setPaused",
      "outputs": [],
      "stateMutability": "nonpayable",
      "type": "function"
    },
    {
      "inputs": [
        {
          "internalType": "uint256",
          "name": "_extendTime",
          "type": "uint256"
        },
        {
          "internalType": "uint256",
          "name": "_reverseTime",
          "type": "uint256"
        }
      ],
      "name": "setReverseTime",
      "outputs": [],
      "stateMutability": "nonpayable",
      "type": "function"
    },
    {
      "inputs": [],
      "name": "setUnpaused",
      "outputs": [],
      "stateMutability": "nonpayable",
      "type": "function"
    },
    {
      "inputs": [
        {
          "internalType": "address",
          "name": "newOperator_",
          "type": "address"
        }
      ],
      "name": "transferOperator",
      "outputs": [],
      "stateMutability": "nonpayable",
      "type": "function"
    },
    {
      "inputs": [
        {
          "internalType": "address",
          "name": "newOwner",
          "type": "address"
        }
      ],
      "name": "transferOwnership",
      "outputs": [],
      "stateMutability": "nonpayable",
      "type": "function"
    },
    {
      "inputs": [
        {
          "internalType": "uint256",
          "name": "_auctionId",
          "type": "uint256"
        }
      ],
      "name": "withdraw",
      "outputs": [],
      "stateMutability": "nonpayable",
      "type": "function"
    },
    {
      "stateMutability": "payable",
      "type": "receive"
    }
  ],
  "bytecode": "0x6064600381905560c060405260c8608090815260a0919091526200002890600490600262000169565b506103e8600555610384600f55620697806010553480156200004957600080fd5b50604051620036fd380380620036fd833981810160405260408110156200006f57600080fd5b50805160209091015160006200008462000165565b600080546001600160a01b0319166001600160a01b0383169081178255604051929350917f8be0079c531659141344cd1fd0a4f28419497f9722a3daafe3b4186f6b6457e0908290a350620000d862000165565b600180546001600160a01b0319166001600160a01b0392831617908190556040519116906000907f74da04524d50c64947f5dd5381ef1a4dca5cba8ed1d816243f9e48aa0b5617ed908290a3600b805460ff191690556001600c55600280546001600160a01b039384166001600160a01b03199182161790915560068054929093169116179055620001d5565b3390565b828054828255906000526020600020908101928215620001ac579160200282015b82811115620001ac578251829060ff169055916020019190600101906200018a565b50620001ba929150620001be565b5090565b5b80821115620001ba5760008155600101620001bf565b61351880620001e56000396000f3fe6080604052600436106101fd5760003560e01c8063715018a61161010d578063b8980b64116100a0578063f288f46f1161006f578063f288f46f14610764578063f2ec6fad14610804578063f2fde38b1461082e578063f628c50514610861578063fc839663146108a957610204565b8063b8980b64146106cb578063c55d0f56146106fb578063c5ac0ded14610725578063cb350d261461073a57610204565b80638e4bb9a1116100dc5780638e4bb9a114610653578063a525d19914610668578063abb6ae89146106a1578063b76b63ec146106b657610204565b8063715018a6146105d857806376467423146105ed5780637fd6f15c146106295780638da5cb5b1461063e57610204565b80633c89edce116101905780634bde38c81161015f5780634bde38c81461053e5780635313a89c1461056f578063570ca735146105845780635b4458a0146105995780635c975abb146105c357610204565b80633c89edce146104cd57806340e58ee5146104e25780634456eda21461050c578063454a2ab31461052157610204565b806319e9e3c8116101cc57806319e9e3c8146103d857806329605e771461045b5780632e1a7d4d1461048e57806337a66d85146104b857610204565b80630773b15b1461020957806309858e4314610256578063122e986f146102af578063150b7a02146102ea57610204565b3661020457005b600080fd5b34801561021557600080fd5b506102426004803603604081101561022c57600080fd5b506001600160a01b038135169060200135610909565b604080519115158252519081900360200190f35b34801561026257600080fd5b506102ad600480360360e081101561027957600080fd5b506001600160a01b038135169060208101359060408101359060608101359060808101359060a08101359060c00135610929565b005b3480156102bb57600080fd5b506102ad600480360360408110156102d257600080fd5b506001600160a01b0381358116916020013516610bfe565b3480156102f657600080fd5b506103bb6004803603608081101561030d57600080fd5b6001600160a01b03823581169260208101359091169160408201359190810190608081016060820135600160201b81111561034757600080fd5b82018360208201111561035957600080fd5b803590602001918460018302840111600160201b8311171561037a57600080fd5b91908080601f016020809104026020016040519081016040528093929190818152602001838380828437600092019190915250929550610c84945050505050565b604080516001600160e01b03199092168252519081900360200190f35b3480156103e457600080fd5b5061040b600480360360208110156103fb57600080fd5b50356001600160a01b0316610c94565b60408051602080825283518183015283519192839290830191858101910280838360005b8381101561044757818101518382015260200161042f565b505050509050019250505060405180910390f35b34801561046757600080fd5b506102ad6004803603602081101561047e57600080fd5b50356001600160a01b0316610d00565b34801561049a57600080fd5b506102ad600480360360208110156104b157600080fd5b5035610d64565b3480156104c457600080fd5b506102ad611029565b3480156104d957600080fd5b506102ad61108b565b3480156104ee57600080fd5b506102ad6004803603602081101561050557600080fd5b50356110eb565b34801561051857600080fd5b50610242611495565b6102ad6004803603602081101561053757600080fd5b50356114bb565b34801561054a57600080fd5b506105536118f1565b604080516001600160a01b039092168252519081900360200190f35b34801561057b57600080fd5b50610553611900565b34801561059057600080fd5b5061055361190f565b3480156105a557600080fd5b506102ad600480360360208110156105bc57600080fd5b503561191e565b3480156105cf57600080fd5b50610242611bdf565b3480156105e457600080fd5b506102ad611be8565b3480156105f957600080fd5b506106176004803603602081101561061057600080fd5b5035611c8a565b60408051918252519081900360200190f35b34801561063557600080fd5b50610617611ca8565b34801561064a57600080fd5b50610553611cae565b34801561065f57600080fd5b50610617611cbd565b34801561067457600080fd5b506106176004803603604081101561068b57600080fd5b506001600160a01b038135169060200135611cc3565b3480156106ad57600080fd5b50610617611cf1565b3480156106c257600080fd5b5061040b611cf7565b3480156106d757600080fd5b506102ad600480360360408110156106ee57600080fd5b5080359060200135611d4f565b34801561070757600080fd5b506106176004803603602081101561071e57600080fd5b5035611e06565b34801561073157600080fd5b50610617611ee4565b34801561074657600080fd5b506102ad6004803603602081101561075d57600080fd5b5035611eea565b34801561077057600080fd5b5061078e6004803603602081101561078757600080fd5b50356121ce565b604080516001600160a01b039d8e168152602081019c909c52998c168b8b015297909a1660608a0152608089019590955260a088019390935260c087019190915260e086015261010085015261012084015263ffffffff9093166101408301526101608201929092529051908190036101800190f35b34801561081057600080fd5b506106176004803603602081101561082757600080fd5b5035612243565b34801561083a57600080fd5b506102ad6004803603602081101561085157600080fd5b50356001600160a01b0316612250565b34801561086d57600080fd5b506102ad600480360360c081101561088457600080fd5b5080359060208101359060408101359060608101359060808101359060a00135612348565b3480156108b557600080fd5b506102ad600480360360608110156108cc57600080fd5b6040805180820182528335939283019291606083019190602084019060029083908390808284376000920191909152509194506127099350505050565b600760209081526000928352604080842090915290825290205460ff1681565b6002600c54141561096f576040805162461bcd60e51b815260206004820152601f602482015260008051602061342f833981519152604482015290519081900360640190fd5b6002600c55600b5460ff16156109bf576040805162461bcd60e51b815260206004820152601060248201526f14185d5cd8589b194e881c185d5cd95960821b604482015290519081900360640190fd5b4281101580156109ce57508181115b610a0c576040805162461bcd60e51b815260206004820152600a6024820152692a34b6b29032b93937b960b11b604482015290519081900360640190fd5b84831015610a4f576040805162461bcd60e51b815260206004820152600b60248201526a283934b1b29032b93937b960a91b604482015290519081900360640190fd5b610a59600d6127ae565b6000610a65600d6127b7565b6000818152600e6020526040902080546001600160a01b038b166001600160a01b0319918216178255600182018a90556002820180549091163317905560048101889055600581018690556006810187905560098101859055600b8101849055909150610ad1816127bb565b60408051632142170760e11b8152336004820152306024820152604481018a905290518a916001600160a01b038316916342842e0e9160648082019260009290919082900301818387803b158015610b2857600080fd5b505af1158015610b3c573d6000803e3d6000fd5b50505050610b4a33846127eb565b600a805460018101825560009182527fc65a7bb8d6351c1cf70c95a316cc6a92839c986682d98bc35f958f4883f9d2a801849055604080516001600160a01b038d168152602081018c90523381830152606081018b9052608081018a905260a0810188905260c0810187905260e08101929092525184917f2bdf3c6eed5e2202a7316215e5cf47a3187124f52e73786d8772a16856229df291908190036101000190a250506001600c555050505050505050565b610c0661282e565b6000546001600160a01b03908116911614610c56576040805162461bcd60e51b815260206004820181905260248201526000805160206134c3833981519152604482015290519081900360640190fd5b600280546001600160a01b039384166001600160a01b03199182161790915560068054929093169116179055565b630a85bd0160e11b949350505050565b6001600160a01b038116600090815260086020908152604091829020805483518184028101840190945280845260609392830182828015610cf457602002820191906000526020600020905b815481526020019060010190808311610ce0575b50505050509050919050565b610d0861282e565b6000546001600160a01b03908116911614610d58576040805162461bcd60e51b815260206004820181905260248201526000805160206134c3833981519152604482015290519081900360640190fd5b610d6181612832565b50565b6002600c541415610daa576040805162461bcd60e51b815260206004820152601f602482015260008051602061342f833981519152604482015290519081900360640190fd5b6002600c55600b5460ff1615610dfa576040805162461bcd60e51b815260206004820152601060248201526f14185d5cd8589b194e881c185d5cd95960821b604482015290519081900360640190fd5b6000818152600e6020526040902080546001600160a01b0316610e54576040805162461bcd60e51b815260206004820152600d60248201526c109a59081b9bdd08195e1a5cdd609a1b604482015290519081900360640190fd5b60038101546001600160a01b03163314610ea2576040805162461bcd60e51b815260206004820152600a6024820152692737ba103134b23232b960b11b604482015290519081900360640190fd5b600a81015463ffffffff16600114610ef7576040805162461bcd60e51b815260206004820152601360248201527215da5d1a191c985dc81b9bdd081bdb88189a59606a1b604482015290519081900360640190fd5b4281600b015410610f3c576040805162461bcd60e51b815260206004820152600a60248201526927b71030bab1ba34b7b760b11b604482015290519081900360640190fd5b60078101546005820154811015610f93576040805162461bcd60e51b81526020600482015260166024820152754e6f74206f766572207265736572766520707269636560501b604482015290519081900360640190fd5b600a8201805463ffffffff191660041790556000610fb28484846128cf565b600284015460038501546008860154604080516001600160a01b039485168152929093166020830152818301849052600460608301526080820152905191925085917f1981b41de05df47ed8eea1bee903f715326695ff8ecbb09cc314773c2f8f1b819181900360a00190a250506001600c555050565b61103161282e565b6000546001600160a01b03908116911614611081576040805162461bcd60e51b815260206004820181905260248201526000805160206134c3833981519152604482015290519081900360640190fd5b611089612e8e565b565b61109361282e565b6000546001600160a01b039081169116146110e3576040805162461bcd60e51b815260206004820181905260248201526000805160206134c3833981519152604482015290519081900360640190fd5b611089612f2c565b6002600c541415611131576040805162461bcd60e51b815260206004820152601f602482015260008051602061342f833981519152604482015290519081900360640190fd5b6002600c55600b5460ff1615611181576040805162461bcd60e51b815260206004820152601060248201526f14185d5cd8589b194e881c185d5cd95960821b604482015290519081900360640190fd5b6000818152600e6020526040902080546001600160a01b03166111db576040805162461bcd60e51b815260206004820152600d60248201526c109a59081b9bdd08195e1a5cdd609a1b604482015290519081900360640190fd5b60028101546001600160a01b03163314611234576040805162461bcd60e51b81526020600482015260156024820152742737ba1030bab1ba34b7b71034b21039b2b63632b960591b604482015290519081900360640190fd5b806005015481600701541061127e576040805162461bcd60e51b815260206004820152600b60248201526a426964207375636365737360a81b604482015290519081900360640190fd5b600a81015463ffffffff1680158061129c57508063ffffffff166001145b806112ad57508063ffffffff166002145b6112fe576040805162461bcd60e51b815260206004820152601960248201527f41756374696f6e2063616e63656c206f72207375636365737300000000000000604482015290519081900360640190fd5b60008163ffffffff16600114156113a2574283600b015410611354576040805162461bcd60e51b815260206004820152600a60248201526927b71030bab1ba34b7b760b11b604482015290519081900360640190fd5b5060078201546003830154611372906001600160a01b031682612fad565b600283015461138a906001600160a01b03168561304d565b60038301546113a2906001600160a01b03168561304d565b8254600184015460408051632142170760e11b81523060048201523360248201526044810192909252516001600160a01b039092169182916342842e0e91606480830192600092919082900301818387803b15801561140057600080fd5b505af1158015611414573d6000803e3d6000fd5b505050600a8501805463ffffffff1916600590811790915560028601546008870154604080516001600160a01b0390931683526020830187905282810193909352606082015290518792507fa6003a9265788185ea9814aebc679ec808f3ee8ceaa6fb959f0abe2d35a6c3929181900360800190a250506001600c55505050565b6001546000906001600160a01b03166114ac61282e565b6001600160a01b031614905090565b6002600c541415611501576040805162461bcd60e51b815260206004820152601f602482015260008051602061342f833981519152604482015290519081900360640190fd5b6002600c55600b5460ff1615611551576040805162461bcd60e51b815260206004820152601060248201526f14185d5cd8589b194e881c185d5cd95960821b604482015290519081900360640190fd5b6000818152600e6020526040902080546001600160a01b03166115ab576040805162461bcd60e51b815260206004820152600d60248201526c109a59081b9bdd08195e1a5cdd609a1b604482015290519081900360640190fd5b80600901544210156115f8576040805162461bcd60e51b8152602060048201526011602482015270105d58dd1a5bdb881b9bdd081cdd185c9d607a1b604482015290519081900360640190fd5b80600b0154421115611640576040805162461bcd60e51b815260206004820152600c60248201526b20bab1ba34b7b71037bb32b960a11b604482015290519081900360640190fd5b600a81015463ffffffff1615806116615750600a81015463ffffffff166001145b6116a3576040805162461bcd60e51b815260206004820152600e60248201526d2737ba1037b71030bab1ba34b7b760911b604482015290519081900360640190fd5b60028101546001600160a01b03163314156116fa576040805162461bcd60e51b815260206004820152601260248201527114d95b1b195c8818d85b881b9bdd08189a5960721b604482015290519081900360640190fd5b60038101546001600160a01b031633141561175c576040805162461bcd60e51b815260206004820152601960248201527f4269646465722063616e206e6f74207265706561742062696400000000000000604482015290519081900360640190fd5b60078101546008820154156117a25760038201546007830154611788916001600160a01b031690612fad565b6006820154600783015461179b91613170565b90506117a9565b5060048101545b8034146117eb576040805162461bcd60e51b815260206004820152600b60248201526a2b30b63ab29032b93937b960a91b604482015290519081900360640190fd5b60078201819055600f54600b83015461180490426131d3565b1161181d57600f54611817904290613170565b600b8301555b60038201546001600160a01b031615611848576003820154611848906001600160a01b03168461304d565b61185233846127eb565b6003820180546001600160a01b03191633179055600a8201805463ffffffff19166001908117909155600883015461188991613170565b60088301819055600b8301546040805133815260208101859052808201939093526060830191909152600160808301525184917f21d49e1c269f967398b585ded56a8f3cbd23b4e2ba8ef4d2221afce47c11688b919081900360a00190a250506001600c5550565b6006546001600160a01b031681565b6002546001600160a01b031681565b6001546001600160a01b031690565b6002600c541415611964576040805162461bcd60e51b815260206004820152601f602482015260008051602061342f833981519152604482015290519081900360640190fd5b6002600c55600b5460ff16156119b4576040805162461bcd60e51b815260206004820152601060248201526f14185d5cd8589b194e881c185d5cd95960821b604482015290519081900360640190fd5b6000818152600e6020526040902080546001600160a01b0316611a0e576040805162461bcd60e51b815260206004820152600d60248201526c109a59081b9bdd08195e1a5cdd609a1b604482015290519081900360640190fd5b60028101546001600160a01b03163314611a5c576040805162461bcd60e51b815260206004820152600a6024820152692737ba1039b2b63632b960b11b604482015290519081900360640190fd5b600a81015463ffffffff16600114611aa8576040805162461bcd60e51b815260206004820152600a602482015269139bdd081bdb88189a5960b21b604482015290519081900360640190fd5b4281600b015410611aed576040805162461bcd60e51b815260206004820152600a60248201526927b71030bab1ba34b7b760b11b604482015290519081900360640190fd5b600a8101805463ffffffff1916600317905560078101546005820154811015611b56576040805162461bcd60e51b81526020600482015260166024820152754e6f74206f766572207265736572766520707269636560501b604482015290519081900360640190fd5b6000611b638484846128cf565b60028401546003808601546008870154604080516001600160a01b03958616815292909416602083015281840185905260608201929092526080810191909152905191925085917f7b8cb770ede1e0fa422e4e20a9b57071e26b1456f74ff39a55a64f8ca651cd499181900360a00190a250506001600c555050565b600b5460ff1690565b611bf061282e565b6000546001600160a01b03908116911614611c40576040805162461bcd60e51b815260206004820181905260248201526000805160206134c3833981519152604482015290519081900360640190fd5b600080546040516001600160a01b03909116907f8be0079c531659141344cd1fd0a4f28419497f9722a3daafe3b4186f6b6457e0908390a3600080546001600160a01b0319169055565b600a8181548110611c9757fe5b600091825260209091200154905081565b60035481565b6000546001600160a01b031690565b60105481565b60086020528160005260406000208181548110611cdc57fe5b90600052602060002001600091509150505481565b600f5481565b6060600a805480602002602001604051908101604052809291908181526020018280548015611d4557602002820191906000526020600020905b815481526020019060010190808311611d31575b5050505050905090565b611d5761282e565b6000546001600160a01b03908116911614611da7576040805162461bcd60e51b815260206004820181905260248201526000805160206134c3833981519152604482015290519081900360640190fd5b7f4ff4b7f9ae1a34069639f29f94106c930a6adba9afeb7263bafe87316aeeb948600f54601054604051808381526020018281526020019250505060405180910390a18115611df657600f8290555b8015611e025760108190555b5050565b6000611e106133ac565b506000828152600e602090815260409182902082516101808101845281546001600160a01b03908116825260018301549382019390935260028201548316938101939093526003810154909116606083015260048101546080830152600581015460a0830152600681015460c0830152600781015460e08301819052600882015461010084018190526009830154610120850152600a83015463ffffffff16610140850152600b909201546101608401529015611edd5760c082015160e0830151611eda91613170565b90505b9392505050565b60055481565b6002600c541415611f30576040805162461bcd60e51b815260206004820152601f602482015260008051602061342f833981519152604482015290519081900360640190fd5b6002600c55600b5460ff1615611f80576040805162461bcd60e51b815260206004820152601060248201526f14185d5cd8589b194e881c185d5cd95960821b604482015290519081900360640190fd5b6000818152600e6020526040902080546001600160a01b0316611fda576040805162461bcd60e51b815260206004820152600d60248201526c109a59081b9bdd08195e1a5cdd609a1b604482015290519081900360640190fd5b60038101546001600160a01b03163314612028576040805162461bcd60e51b815260206004820152600a6024820152692737ba103134b23232b960b11b604482015290519081900360640190fd5b8060050154816007015410612072576040805162461bcd60e51b815260206004820152600b60248201526a426964207375636365737360a81b604482015290519081900360640190fd5b600a81015463ffffffff166001146120c7576040805162461bcd60e51b815260206004820152601360248201527214995d995c9cd9481b5d5cdd081bdb88189a59606a1b604482015290519081900360640190fd5b426120e160105483600b015461317090919063ffffffff16565b111561212c576040805162461bcd60e51b81526020600482015260156024820152744e6f74206f76657220726576657273652074696d6560581b604482015290519081900360640190fd5b61213a338260070154612fad565b600a8101805463ffffffff191660021790556003810154612164906001600160a01b03168361304d565b600381015460078201546008830154604080516001600160a01b039094168452602084019290925260028383015260608301525183917fc75bdd972bbaf239d88d728e4b6b5c866745e5aabbb90f310174a9ab883dae02919081900360800190a250506001600c55565b600e60205260009081526040902080546001820154600283015460038401546004850154600586015460068701546007880154600889015460098a0154600a8b0154600b909b01546001600160a01b039a8b169b999a98891699989097169795969495939492939192909163ffffffff16908c565b60048181548110611c9757fe5b61225861282e565b6000546001600160a01b039081169116146122a8576040805162461bcd60e51b815260206004820181905260248201526000805160206134c3833981519152604482015290519081900360640190fd5b6001600160a01b0381166122ed5760405162461bcd60e51b815260040180806020018281038252602681526020018061344f6026913960400191505060405180910390fd5b600080546040516001600160a01b03808516939216917f8be0079c531659141344cd1fd0a4f28419497f9722a3daafe3b4186f6b6457e091a3600080546001600160a01b0319166001600160a01b0392909216919091179055565b6002600c54141561238e576040805162461bcd60e51b815260206004820152601f602482015260008051602061342f833981519152604482015290519081900360640190fd5b6002600c55600b5460ff16156123de576040805162461bcd60e51b815260206004820152601060248201526f14185d5cd8589b194e881c185d5cd95960821b604482015290519081900360640190fd5b4281101580156123ed57508181115b61242b576040805162461bcd60e51b815260206004820152600a6024820152692a34b6b29032b93937b960b11b604482015290519081900360640190fd5b8483101561246e576040805162461bcd60e51b815260206004820152600b60248201526a283934b1b29032b93937b960a91b604482015290519081900360640190fd5b6000868152600e6020526040902080546001600160a01b03166124c8576040805162461bcd60e51b815260206004820152600d60248201526c109a59081b9bdd08195e1a5cdd609a1b604482015290519081900360640190fd5b600a81015463ffffffff1660051415612528576040805162461bcd60e51b815260206004820152601860248201527f53656c6c657220686173206265656e2063616e63656c65640000000000000000604482015290519081900360640190fd5b8060050154816007015410612572576040805162461bcd60e51b815260206004820152600b60248201526a426964207375636365737360a81b604482015290519081900360640190fd5b60028101546001600160a01b031633146125cb576040805162461bcd60e51b81526020600482015260156024820152742737ba1030bab1ba34b7b71034b21039b2b63632b960591b604482015290519081900360640190fd5b600a81015460009063ffffffff16600114156126625781600b0154421161262c576040805162461bcd60e51b815260206004820152601060248201526f20bab1ba34b7b7103737ba1037bb32b960811b604482015290519081900360640190fd5b506007810154600382015461264a906001600160a01b031682612fad565b6003820154612662906001600160a01b03168961304d565b6002820180546001600160a01b0319163317905560048201879055600582018590556006820186905560098201849055600b82018390556126a2826127bb565b60408051828152602081018990528082018890526060810186905260808101859052600060a0820152905189917fb0105f505934a6f454ab99ff856e578ea6c4669855b50c90dc425b4b825bc904919081900360c00190a250506001600c55505050505050565b61271161282e565b6000546001600160a01b03908116911614612761576040805162461bcd60e51b815260206004820181905260248201526000805160206134c3833981519152604482015290519081900360640190fd5b811561276d5760038290555b80516004805460009061277c57fe5b6000918252602090912001558060016020020151600460018154811061279e57fe5b6000918252602090912001555050565b80546001019055565b5490565b600060078201819055600a8201805463ffffffff19169055600882015560030180546001600160a01b0319169055565b6001600160a01b03909116600090815260086020818152604080842080546009845282862087875284529185208290559282526001810183559183529091200155565b3390565b6001600160a01b0381166128775760405162461bcd60e51b815260040180806020018281038252602d815260200180613475602d913960400191505060405180910390fd5b6040516001600160a01b038216906000907f74da04524d50c64947f5dd5381ef1a4dca5cba8ed1d816243f9e48aa0b5617ed908290a3600180546001600160a01b0319166001600160a01b0392909216919091179055565b81546003830154600184015460408051632142170760e11b81523060048201526001600160a01b0393841660248201526044810192909252516000938593169182916342842e0e91606480820192889290919082900301818387803b15801561293757600080fd5b505af115801561294b573d6000803e3d6000fd5b50505050600061297260055461296c6003548661321590919063ffffffff16565b9061326e565b60065490915060009061298e906001600160a01b031683612fad565b86546002546001600160a01b0390811691161415612e1e576002546001880154604080516355d81dd360e11b81526004810192909252516000926001600160a01b03169163abb03ba6916024808301926060929190829003018186803b1580156129f757600080fd5b505afa158015612a0b573d6000803e3d6000fd5b505050506040513d6060811015612a2157600080fd5b50516002546040805163e726d96b60e01b815260048101849052905192935060009260609283926001600160a01b039091169163e726d96b916024808201928892909190829003018186803b158015612a7957600080fd5b505afa158015612a8d573d6000803e3d6000fd5b505050506040513d6000823e601f3d908101601f1916820160405260e0811015612ab657600080fd5b8151602083015160408085015160608601516080870180519351959794969295919491939282019284600160201b821115612af057600080fd5b908301906020820185811115612b0557600080fd5b82518660208202830111600160201b82111715612b2157600080fd5b82525081516020918201928201910280838360005b83811015612b4e578181015183820152602001612b36565b5050505090500160405260200180516040519392919084600160201b821115612b7657600080fd5b908301906020820185811115612b8b57600080fd5b82518660208202830111600160201b82111715612ba757600080fd5b82525081516020918201928201910280838360005b83811015612bd4578181015183820152602001612bbc565b5050505090500160405260200180516040519392919084600160201b821115612bfc57600080fd5b908301906020820185811115612c1157600080fd5b8251600160201b811182820188101715612c2a57600080fd5b82525081516020918201929091019080838360005b83811015612c57578181015183820152602001612c3f565b50505050905090810190601f168015612c845780820380516001836020036101000a031916815260200191505b50604052505050509550955095505050506000600760008d60000160009054906101000a90046001600160a01b03166001600160a01b03166001600160a01b0316815260200190815260200160002060008d60010154815260200190815260200160002060009054906101000a900460ff169050612d4560055461296c83612d24576004600081548110612d1457fe5b9060005260206000200154612d3e565b6004600181548110612d3257fe5b90600052602060002001545b8c90613215565b9550825160001415612d6057612d5b8487612fad565b612de4565b60005b8251811015612de25780612dab57612da685612da160055461296c878681518110612d8a57fe5b60200260200101518c61321590919063ffffffff16565b612fad565b612dda565b612dda846001830381518110612dbd57fe5b6020026020010151612da160055461296c878681518110612d8a57fe5b600101612d63565b505b505089546001600160a01b0316600090815260076020908152604080832060018e81015485529252909120805460ff191690911790555050505b6002870154612e44906001600160a01b0316612da183612e3e88876131d3565b906131d3565b6002870154612e5c906001600160a01b03168961304d565b6003870154612e74906001600160a01b03168961304d565b612e8281612e3e86856131d3565b98975050505050505050565b600b5460ff1615612ed9576040805162461bcd60e51b815260206004820152601060248201526f14185d5cd8589b194e881c185d5cd95960821b604482015290519081900360640190fd5b600b805460ff191660011790557f62e78cea01bee320cd4e420270b5ea74000d11b0c9f74754ebdbfc544b05a258612f0f61282e565b604080516001600160a01b039092168252519081900360200190a1565b600b5460ff16612f7a576040805162461bcd60e51b815260206004820152601460248201527314185d5cd8589b194e881b9bdd081c185d5cd95960621b604482015290519081900360640190fd5b600b805460ff191690557f5db9ee0a495bf2e6ff9c91a7834c1ba4fdd244a5e8aa4e537bd38aeae4b073aa612f0f61282e565b6040516000906001600160a01b0384169083908381818185875af1925050503d8060008114612ff8576040519150601f19603f3d011682016040523d82523d6000602084013e612ffd565b606091505b5050905080613048576040805162461bcd60e51b81526020600482015260126024820152712a2920a729a322a91022aa241022a92927a960711b604482015290519081900360640190fd5b505050565b6001600160a01b0382166000908152600860205260408120546130719060016131d3565b6001600160a01b0384166000908152600960209081526040808320868452909152902054909150808214613133576001600160a01b03841660009081526008602052604081208054849081106130c357fe5b906000526020600020015490508060086000876001600160a01b03166001600160a01b03168152602001908152602001600020838154811061310157fe5b60009182526020808320909101929092556001600160a01b038716815260098252604080822093825292909152208190555b6001600160a01b038416600090815260086020526040902080548061315457fe5b6001900381819060005260206000200160009055905550505050565b6000828201838110156131ca576040805162461bcd60e51b815260206004820152601b60248201527f536166654d6174683a206164646974696f6e206f766572666c6f770000000000604482015290519081900360640190fd5b90505b92915050565b60006131ca83836040518060400160405280601e81526020017f536166654d6174683a207375627472616374696f6e206f766572666c6f7700008152506132b0565b600082613224575060006131cd565b8282028284828161323157fe5b04146131ca5760405162461bcd60e51b81526004018080602001828103825260218152602001806134a26021913960400191505060405180910390fd5b60006131ca83836040518060400160405280601a81526020017f536166654d6174683a206469766973696f6e206279207a65726f000000000000815250613347565b6000818484111561333f5760405162461bcd60e51b81526004018080602001828103825283818151815260200191508051906020019080838360005b838110156133045781810151838201526020016132ec565b50505050905090810190601f1680156133315780820380516001836020036101000a031916815260200191505b509250505060405180910390fd5b505050900390565b600081836133965760405162461bcd60e51b81526020600482018181528351602484015283519092839260449091019190850190808383600083156133045781810151838201526020016132ec565b5060008385816133a257fe5b0495945050505050565b60405180610180016040528060006001600160a01b031681526020016000815260200160006001600160a01b0316815260200160006001600160a01b03168152602001600081526020016000815260200160008152602001600081526020016000815260200160008152602001600063ffffffff16815260200160008152509056fe5265656e7472616e637947756172643a207265656e7472616e742063616c6c004f776e61626c653a206e6577206f776e657220697320746865207a65726f20616464726573736f70657261746f723a207a65726f206164647265737320676976656e20666f72206e6577206f70657261746f72536166654d6174683a206d756c7469706c69636174696f6e206f766572666c6f774f776e61626c653a2063616c6c6572206973206e6f7420746865206f776e6572a2646970667358221220e2f6a44cd32ead83e04384f546838ae7d111184e40c0bcd3248105e8ba143b5964736f6c634300060c0033",
  "linkReferences": {},
  "deployedLinkReferences": {}
}