{
  "_format": "hh-sol-artifact-1",
  "contractName": "ArtGeeNft",
  "sourceName": "contracts/ArtGeeNft.sol",
  "abi": [
    {
      "inputs": [
        {
          "internalType": "contract IDigitalSource",
          "name": "_iDigitalSource",
          "type": "address"
        }
      ],
      "stateMutability": "nonpayable",
      "type": "constructor"
    },
    {
      "anonymous": false,
      "inputs": [
        {
          "indexed": true,
          "internalType": "address",
          "name": "owner",
          "type": "address"
        },
        {
          "indexed": true,
          "internalType": "address",
          "name": "approved",
          "type": "address"
        },
        {
          "indexed": true,
          "internalType": "uint256",
          "name": "tokenId",
          "type": "uint256"
        }
      ],
      "name": "Approval",
      "type": "event"
    },
    {
      "anonymous": false,
      "inputs": [
        {
          "indexed": true,
          "internalType": "address",
          "name": "owner",
          "type": "address"
        },
        {
          "indexed": true,
          "internalType": "address",
          "name": "operator",
          "type": "address"
        },
        {
          "indexed": false,
          "internalType": "bool",
          "name": "approved",
          "type": "bool"
        }
      ],
      "name": "ApprovalForAll",
      "type": "event"
    },
    {
      "anonymous": false,
      "inputs": [
        {
          "indexed": false,
          "internalType": "uint256",
          "name": "_artId",
          "type": "uint256"
        },
        {
          "indexed": false,
          "internalType": "address",
          "name": "_owner",
          "type": "address"
        },
        {
          "indexed": false,
          "internalType": "uint256",
          "name": "_tokenId",
          "type": "uint256"
        },
        {
          "indexed": false,
          "internalType": "uint256",
          "name": "_edition",
          "type": "uint256"
        },
        {
          "indexed": false,
          "internalType": "uint256",
          "name": "_totalEdition",
          "type": "uint256"
        },
        {
          "indexed": false,
          "internalType": "string",
          "name": "_uri",
          "type": "string"
        }
      ],
      "name": "CreateArt",
      "type": "event"
    },
    {
      "anonymous": false,
      "inputs": [
        {
          "indexed": true,
          "internalType": "address",
          "name": "previousOperator",
          "type": "address"
        },
        {
          "indexed": true,
          "internalType": "address",
          "name": "newOperator",
          "type": "address"
        }
      ],
      "name": "OperatorTransferred",
      "type": "event"
    },
    {
      "anonymous": false,
      "inputs": [
        {
          "indexed": true,
          "internalType": "address",
          "name": "previousOwner",
          "type": "address"
        },
        {
          "indexed": true,
          "internalType": "address",
          "name": "newOwner",
          "type": "address"
        }
      ],
      "name": "OwnershipTransferred",
      "type": "event"
    },
    {
      "anonymous": false,
      "inputs": [
        {
          "indexed": false,
          "internalType": "address",
          "name": "account",
          "type": "address"
        }
      ],
      "name": "Paused",
      "type": "event"
    },
    {
      "anonymous": false,
      "inputs": [
        {
          "indexed": true,
          "internalType": "address",
          "name": "from",
          "type": "address"
        },
        {
          "indexed": true,
          "internalType": "address",
          "name": "to",
          "type": "address"
        },
        {
          "indexed": true,
          "internalType": "uint256",
          "name": "tokenId",
          "type": "uint256"
        }
      ],
      "name": "Transfer",
      "type": "event"
    },
    {
      "anonymous": false,
      "inputs": [
        {
          "indexed": false,
          "internalType": "address",
          "name": "account",
          "type": "address"
        }
      ],
      "name": "Unpaused",
      "type": "event"
    },
    {
      "anonymous": false,
      "inputs": [
        {
          "indexed": false,
          "internalType": "uint256",
          "name": "_artId",
          "type": "uint256"
        },
        {
          "indexed": false,
          "internalType": "uint256",
          "name": "edition",
          "type": "uint256"
        }
      ],
      "name": "UpdateEdition",
      "type": "event"
    },
    {
      "inputs": [
        {
          "internalType": "uint32",
          "name": "_mTotalEdition",
          "type": "uint32"
        }
      ],
      "name": "SetMTotalEdition",
      "outputs": [],
      "stateMutability": "nonpayable",
      "type": "function"
    },
    {
      "inputs": [
        {
          "internalType": "uint256",
          "name": "_artId",
          "type": "uint256"
        },
        {
          "internalType": "uint256",
          "name": "_count",
          "type": "uint256"
        }
      ],
      "name": "addArt",
      "outputs": [],
      "stateMutability": "nonpayable",
      "type": "function"
    },
    {
      "inputs": [
        {
          "internalType": "address",
          "name": "_black",
          "type": "address"
        }
      ],
      "name": "addBlackList",
      "outputs": [],
      "stateMutability": "nonpayable",
      "type": "function"
    },
    {
      "inputs": [
        {
          "internalType": "address",
          "name": "_transferAddr",
          "type": "address"
        }
      ],
      "name": "addTransferList",
      "outputs": [],
      "stateMutability": "nonpayable",
      "type": "function"
    },
    {
      "inputs": [
        {
          "internalType": "address",
          "name": "to",
          "type": "address"
        },
        {
          "internalType": "uint256",
          "name": "tokenId",
          "type": "uint256"
        }
      ],
      "name": "approve",
      "outputs": [],
      "stateMutability": "nonpayable",
      "type": "function"
    },
    {
      "inputs": [
        {
          "internalType": "address",
          "name": "owner",
          "type": "address"
        }
      ],
      "name": "balanceOf",
      "outputs": [
        {
          "internalType": "uint256",
          "name": "",
          "type": "uint256"
        }
      ],
      "stateMutability": "view",
      "type": "function"
    },
    {
      "inputs": [],
      "name": "baseURI",
      "outputs": [
        {
          "internalType": "string",
          "name": "",
          "type": "string"
        }
      ],
      "stateMutability": "view",
      "type": "function"
    },
    {
      "inputs": [
        {
          "internalType": "address",
          "name": "",
          "type": "address"
        }
      ],
      "name": "blackList",
      "outputs": [
        {
          "internalType": "bool",
          "name": "",
          "type": "bool"
        }
      ],
      "stateMutability": "view",
      "type": "function"
    },
    {
      "inputs": [
        {
          "internalType": "uint256",
          "name": "_id",
          "type": "uint256"
        }
      ],
      "name": "burnItem",
      "outputs": [],
      "stateMutability": "nonpayable",
      "type": "function"
    },
    {
      "inputs": [
        {
          "internalType": "address[]",
          "name": "_assistants",
          "type": "address[]"
        },
        {
          "internalType": "uint256[]",
          "name": "_benefits",
          "type": "uint256[]"
        },
        {
          "internalType": "uint256",
          "name": "_totalEdition",
          "type": "uint256"
        },
        {
          "internalType": "string",
          "name": "_uri",
          "type": "string"
        },
        {
          "internalType": "uint256",
          "name": "_count",
          "type": "uint256"
        }
      ],
      "name": "createArt",
      "outputs": [],
      "stateMutability": "nonpayable",
      "type": "function"
    },
    {
      "inputs": [
        {
          "internalType": "uint256",
          "name": "tokenId",
          "type": "uint256"
        }
      ],
      "name": "getApproved",
      "outputs": [
        {
          "internalType": "address",
          "name": "",
          "type": "address"
        }
      ],
      "stateMutability": "view",
      "type": "function"
    },
    {
      "inputs": [
        {
          "internalType": "uint256",
          "name": "_artId",
          "type": "uint256"
        }
      ],
      "name": "getSourceDigitalArt",
      "outputs": [
        {
          "internalType": "uint256",
          "name": "id",
          "type": "uint256"
        },
        {
          "internalType": "uint256",
          "name": "totalEdition",
          "type": "uint256"
        },
        {
          "internalType": "uint256",
          "name": "currentEdition",
          "type": "uint256"
        },
        {
          "internalType": "address",
          "name": "creator",
          "type": "address"
        },
        {
          "internalType": "address[]",
          "name": "assistants",
          "type": "address[]"
        },
        {
          "internalType": "uint256[]",
          "name": "benefits",
          "type": "uint256[]"
        },
        {
          "internalType": "string",
          "name": "uri",
          "type": "string"
        }
      ],
      "stateMutability": "view",
      "type": "function"
    },
    {
      "inputs": [],
      "name": "iDigitalSource",
      "outputs": [
        {
          "internalType": "contract IDigitalSource",
          "name": "",
          "type": "address"
        }
      ],
      "stateMutability": "view",
      "type": "function"
    },
    {
      "inputs": [
        {
          "internalType": "address",
          "name": "owner",
          "type": "address"
        },
        {
          "internalType": "address",
          "name": "operator",
          "type": "address"
        }
      ],
      "name": "isApprovedForAll",
      "outputs": [
        {
          "internalType": "bool",
          "name": "",
          "type": "bool"
        }
      ],
      "stateMutability": "view",
      "type": "function"
    },
    {
      "inputs": [],
      "name": "isOperator",
      "outputs": [
        {
          "internalType": "bool",
          "name": "",
          "type": "bool"
        }
      ],
      "stateMutability": "view",
      "type": "function"
    },
    {
      "inputs": [
        {
          "internalType": "uint256",
          "name": "",
          "type": "uint256"
        }
      ],
      "name": "limitCount",
      "outputs": [
        {
          "internalType": "uint256",
          "name": "",
          "type": "uint256"
        }
      ],
      "stateMutability": "view",
      "type": "function"
    },
    {
      "inputs": [],
      "name": "mTotalEdition",
      "outputs": [
        {
          "internalType": "uint32",
          "name": "",
          "type": "uint32"
        }
      ],
      "stateMutability": "view",
      "type": "function"
    },
    {
      "inputs": [
        {
          "internalType": "address",
          "name": "",
          "type": "address"
        }
      ],
      "name": "miners",
      "outputs": [
        {
          "internalType": "bool",
          "name": "",
          "type": "bool"
        }
      ],
      "stateMutability": "view",
      "type": "function"
    },
    {
      "inputs": [],
      "name": "name",
      "outputs": [
        {
          "internalType": "string",
          "name": "",
          "type": "string"
        }
      ],
      "stateMutability": "view",
      "type": "function"
    },
    {
      "inputs": [],
      "name": "operator",
      "outputs": [
        {
          "internalType": "address",
          "name": "",
          "type": "address"
        }
      ],
      "stateMutability": "view",
      "type": "function"
    },
    {
      "inputs": [],
      "name": "owner",
      "outputs": [
        {
          "internalType": "address",
          "name": "",
          "type": "address"
        }
      ],
      "stateMutability": "view",
      "type": "function"
    },
    {
      "inputs": [
        {
          "internalType": "uint256",
          "name": "tokenId",
          "type": "uint256"
        }
      ],
      "name": "ownerOf",
      "outputs": [
        {
          "internalType": "address",
          "name": "",
          "type": "address"
        }
      ],
      "stateMutability": "view",
      "type": "function"
    },
    {
      "inputs": [],
      "name": "paused",
      "outputs": [
        {
          "internalType": "bool",
          "name": "",
          "type": "bool"
        }
      ],
      "stateMutability": "view",
      "type": "function"
    },
    {
      "inputs": [
        {
          "internalType": "address",
          "name": "_black",
          "type": "address"
        }
      ],
      "name": "removeBlackList",
      "outputs": [],
      "stateMutability": "nonpayable",
      "type": "function"
    },
    {
      "inputs": [
        {
          "internalType": "address",
          "name": "_transferAddr",
          "type": "address"
        }
      ],
      "name": "removeTransferList",
      "outputs": [],
      "stateMutability": "nonpayable",
      "type": "function"
    },
    {
      "inputs": [],
      "name": "renounceOwnership",
      "outputs": [],
      "stateMutability": "nonpayable",
      "type": "function"
    },
    {
      "inputs": [
        {
          "internalType": "address",
          "name": "from",
          "type": "address"
        },
        {
          "internalType": "address",
          "name": "to",
          "type": "address"
        },
        {
          "internalType": "uint256",
          "name": "tokenId",
          "type": "uint256"
        }
      ],
      "name": "safeTransferFrom",
      "outputs": [],
      "stateMutability": "nonpayable",
      "type": "function"
    },
    {
      "inputs": [
        {
          "internalType": "address",
          "name": "from",
          "type": "address"
        },
        {
          "internalType": "address",
          "name": "to",
          "type": "address"
        },
        {
          "internalType": "uint256",
          "name": "tokenId",
          "type": "uint256"
        },
        {
          "internalType": "bytes",
          "name": "_data",
          "type": "bytes"
        }
      ],
      "name": "safeTransferFrom",
      "outputs": [],
      "stateMutability": "nonpayable",
      "type": "function"
    },
    {
      "inputs": [
        {
          "internalType": "address",
          "name": "operator",
          "type": "address"
        },
        {
          "internalType": "bool",
          "name": "approved",
          "type": "bool"
        }
      ],
      "name": "setApprovalForAll",
      "outputs": [],
      "stateMutability": "nonpayable",
      "type": "function"
    },
    {
      "inputs": [
        {
          "internalType": "string",
          "name": "_baseURI",
          "type": "string"
        }
      ],
      "name": "setBaseURI",
      "outputs": [],
      "stateMutability": "nonpayable",
      "type": "function"
    },
    {
      "inputs": [
        {
          "internalType": "bytes4",
          "name": "interfaceId",
          "type": "bytes4"
        }
      ],
      "name": "supportsInterface",
      "outputs": [
        {
          "internalType": "bool",
          "name": "",
          "type": "bool"
        }
      ],
      "stateMutability": "view",
      "type": "function"
    },
    {
      "inputs": [],
      "name": "symbol",
      "outputs": [
        {
          "internalType": "string",
          "name": "",
          "type": "string"
        }
      ],
      "stateMutability": "view",
      "type": "function"
    },
    {
      "inputs": [
        {
          "internalType": "uint256",
          "name": "",
          "type": "uint256"
        }
      ],
      "name": "tokenArts",
      "outputs": [
        {
          "internalType": "uint256",
          "name": "artId",
          "type": "uint256"
        },
        {
          "internalType": "uint256",
          "name": "edition",
          "type": "uint256"
        },
        {
          "internalType": "uint256",
          "name": "totalEdition",
          "type": "uint256"
        }
      ],
      "stateMutability": "view",
      "type": "function"
    },
    {
      "inputs": [
        {
          "internalType": "uint256",
          "name": "index",
          "type": "uint256"
        }
      ],
      "name": "tokenByIndex",
      "outputs": [
        {
          "internalType": "uint256",
          "name": "",
          "type": "uint256"
        }
      ],
      "stateMutability": "view",
      "type": "function"
    },
    {
      "inputs": [
        {
          "internalType": "address",
          "name": "owner",
          "type": "address"
        },
        {
          "internalType": "uint256",
          "name": "index",
          "type": "uint256"
        }
      ],
      "name": "tokenOfOwnerByIndex",
      "outputs": [
        {
          "internalType": "uint256",
          "name": "",
          "type": "uint256"
        }
      ],
      "stateMutability": "view",
      "type": "function"
    },
    {
      "inputs": [
        {
          "internalType": "uint256",
          "name": "tokenId",
          "type": "uint256"
        }
      ],
      "name": "tokenURI",
      "outputs": [
        {
          "internalType": "string",
          "name": "",
          "type": "string"
        }
      ],
      "stateMutability": "view",
      "type": "function"
    },
    {
      "inputs": [
        {
          "internalType": "address",
          "name": "_owner",
          "type": "address"
        }
      ],
      "name": "tokensOfOwner",
      "outputs": [
        {
          "internalType": "uint256[]",
          "name": "_tokens",
          "type": "uint256[]"
        }
      ],
      "stateMutability": "view",
      "type": "function"
    },
    {
      "inputs": [],
      "name": "totalSupply",
      "outputs": [
        {
          "internalType": "uint256",
          "name": "",
          "type": "uint256"
        }
      ],
      "stateMutability": "view",
      "type": "function"
    },
    {
      "inputs": [
        {
          "internalType": "address",
          "name": "from",
          "type": "address"
        },
        {
          "internalType": "address",
          "name": "to",
          "type": "address"
        },
        {
          "internalType": "uint256",
          "name": "tokenId",
          "type": "uint256"
        }
      ],
      "name": "transferFrom",
      "outputs": [],
      "stateMutability": "nonpayable",
      "type": "function"
    },
    {
      "inputs": [
        {
          "internalType": "address",
          "name": "",
          "type": "address"
        }
      ],
      "name": "transferList",
      "outputs": [
        {
          "internalType": "bool",
          "name": "",
          "type": "bool"
        }
      ],
      "stateMutability": "view",
      "type": "function"
    },
    {
      "inputs": [
        {
          "internalType": "address",
          "name": "newOperator_",
          "type": "address"
        }
      ],
      "name": "transferOperator",
      "outputs": [],
      "stateMutability": "nonpayable",
      "type": "function"
    },
    {
      "inputs": [
        {
          "internalType": "address",
          "name": "newOwner",
          "type": "address"
        }
      ],
      "name": "transferOwnership",
      "outputs": [],
      "stateMutability": "nonpayable",
      "type": "function"
    }
  ],
  "bytecode": "0x60806040526012805463ffffffff19166127101790553480156200002257600080fd5b50604051620042a7380380620042a7833981810160405260208110156200004857600080fd5b50516040805180820182526004808252634141414160e01b6020838101829052845180860190955291845290830152906200008a6301ffc9a760e01b6200020a565b81516200009f906006906020850190620002ac565b508051620000b5906007906020840190620002ac565b50620000c86380ac58cd60e01b6200020a565b620000da635b5e139f60e01b6200020a565b620000ec63780e9d6360e01b6200020a565b5060009050620000fb6200028f565b600a80546001600160a01b0319166001600160a01b038316908117909155604051919250906000907f8be0079c531659141344cd1fd0a4f28419497f9722a3daafe3b4186f6b6457e0908290a350620001536200028f565b600b80546001600160a01b0319166001600160a01b0392831617908190556040519116906000907f74da04524d50c64947f5dd5381ef1a4dca5cba8ed1d816243f9e48aa0b5617ed908290a3600b805460ff60a01b19169055600f80546001600160a01b0319166001600160a01b03831617905560408051808201909152600c81526b697066733a2f2f697066732f60a01b60208083019190915262000203919062000293811b620024e517901c565b5062000348565b6001600160e01b031980821614156200026a576040805162461bcd60e51b815260206004820152601c60248201527f4552433136353a20696e76616c696420696e7465726661636520696400000000604482015290519081900360640190fd5b6001600160e01b0319166000908152602081905260409020805460ff19166001179055565b3390565b8051620002a8906009906020840190620002ac565b5050565b828054600181600116156101000203166002900490600052602060002090601f016020900481019282601f10620002ef57805160ff19168380011785556200031f565b828001600101855582156200031f579182015b828111156200031f57825182559160200191906001019062000302565b506200032d92915062000331565b5090565b5b808211156200032d576000815560010162000332565b613f4f80620003586000396000f3fe608060405234801561001057600080fd5b506004361061025e5760003560e01c8063570ca735116101465780638da5cb5b116100c3578063c87b56dd11610087578063c87b56dd14610a55578063de14eba214610a72578063e4997dc514610a95578063e726d96b14610abb578063e985e9c514610bff578063f2fde38b14610c2d5761025e565b80638da5cb5b1461091857806395d89b4114610920578063a22cb46514610928578063abb03ba614610956578063b88d4fde146109915761025e565b80636c0360eb1161010a5780636c0360eb1461084f57806370a0823114610857578063715018a61461087d57806379131912146108855780638462151c146108a25761025e565b8063570ca735146107df578063576cc0f7146107e75780635c975abb146108045780636352211e1461080c578063648ec7b9146108295761025e565b806323b872dd116101df5780633ea80cd2116101a35780633ea80cd21461050857806342842e0e146106ba5780634456eda2146106f05780634838d165146106f85780634f6ccce71461071e57806355f804b31461073b5761025e565b806323b872dd1461043c57806329605e77146104725780632f745c5914610498578063334b49a9146104c4578063391d7dc9146104e75761025e565b8063095ea7b311610226578063095ea7b3146103a25780630ecb93c0146103ce57806311153152146103f457806318160ddd146103fc5780631f8fb86d146104165761025e565b806301ffc9a71461026357806306fdde031461029e57806307210e891461031b578063081812fc146103415780630825c3861461037a575b600080fd5b61028a6004803603602081101561027957600080fd5b50356001600160e01b031916610c53565b604080519115158252519081900360200190f35b6102a6610c76565b6040805160208082528351818301528351919283929083019185019080838360005b838110156102e05781810151838201526020016102c8565b50505050905090810190601f16801561030d5780820380516001836020036101000a031916815260200191505b509250505060405180910390f35b61028a6004803603602081101561033157600080fd5b50356001600160a01b0316610d0c565b61035e6004803603602081101561035757600080fd5b5035610d21565b604080516001600160a01b039092168252519081900360200190f35b6103a06004803603602081101561039057600080fd5b50356001600160a01b0316610d83565b005b6103a0600480360360408110156103b857600080fd5b506001600160a01b038135169060200135610dfc565b6103a0600480360360208110156103e457600080fd5b50356001600160a01b0316610ed7565b61035e610f53565b610404610f62565b60408051918252519081900360200190f35b6103a06004803603602081101561042c57600080fd5b50356001600160a01b0316610f73565b6103a06004803603606081101561045257600080fd5b506001600160a01b03813581169160208101359091169060400135610fef565b6103a06004803603602081101561048857600080fd5b50356001600160a01b03166110bc565b610404600480360360408110156104ae57600080fd5b506001600160a01b038135169060200135611120565b6103a0600480360360408110156104da57600080fd5b508035906020013561114b565b6104ef6114d0565b6040805163ffffffff9092168252519081900360200190f35b6103a0600480360360a081101561051e57600080fd5b810190602081018135600160201b81111561053857600080fd5b82018360208201111561054a57600080fd5b803590602001918460208302840111600160201b8311171561056b57600080fd5b9190808060200260200160405190810160405280939291908181526020018383602002808284376000920191909152509295949360208101935035915050600160201b8111156105ba57600080fd5b8201836020820111156105cc57600080fd5b803590602001918460208302840111600160201b831117156105ed57600080fd5b91908080602002602001604051908101604052809392919081815260200183836020028082843760009201919091525092958435959094909350604081019250602001359050600160201b81111561064457600080fd5b82018360208201111561065657600080fd5b803590602001918460018302840111600160201b8311171561067757600080fd5b91908080601f01602080910402602001604051908101604052809392919081815260200183838082843760009201919091525092955050913592506114dc915050565b6103a0600480360360608110156106d057600080fd5b506001600160a01b0381358116916020810135909116906040013561185f565b61028a61187a565b61028a6004803603602081101561070e57600080fd5b50356001600160a01b03166118a0565b6104046004803603602081101561073457600080fd5b50356118b5565b6103a06004803603602081101561075157600080fd5b810190602081018135600160201b81111561076b57600080fd5b82018360208201111561077d57600080fd5b803590602001918460018302840111600160201b8311171561079e57600080fd5b91908080601f0160208091040260200160405190810160405280939291908181526020018383808284376000920191909152509295506118cb945050505050565b61035e61192c565b6103a0600480360360208110156107fd57600080fd5b503561193b565b61028a6119bd565b61035e6004803603602081101561082257600080fd5b50356119cd565b61028a6004803603602081101561083f57600080fd5b50356001600160a01b03166119f5565b6102a6611a0a565b6104046004803603602081101561086d57600080fd5b50356001600160a01b0316611a6b565b6103a0611ad3565b6104046004803603602081101561089b57600080fd5b5035611b75565b6108c8600480360360208110156108b857600080fd5b50356001600160a01b0316611b87565b60408051602080825283518183015283519192839290830191858101910280838360005b838110156109045781810151838201526020016108ec565b505050509050019250505060405180910390f35b61035e611bf3565b6102a6611c02565b6103a06004803603604081101561093e57600080fd5b506001600160a01b0381351690602001351515611c63565b6109736004803603602081101561096c57600080fd5b5035611d68565b60408051938452602084019290925282820152519081900360600190f35b6103a0600480360360808110156109a757600080fd5b6001600160a01b03823581169260208101359091169160408201359190810190608081016060820135600160201b8111156109e157600080fd5b8201836020820111156109f357600080fd5b803590602001918460018302840111600160201b83111715610a1457600080fd5b91908080601f016020809104026020016040519081016040528093929190818152602001838380828437600092019190915250929550611d89945050505050565b6102a660048036036020811015610a6b57600080fd5b5035611d9b565b6103a060048036036020811015610a8857600080fd5b503563ffffffff16612042565b6103a060048036036020811015610aab57600080fd5b50356001600160a01b03166120b6565b610ad860048036036020811015610ad157600080fd5b503561212f565b60405180888152602001878152602001868152602001856001600160a01b03168152602001806020018060200180602001848103845287818151815260200191508051906020019060200280838360005b83811015610b41578181015183820152602001610b29565b50505050905001848103835286818151815260200191508051906020019060200280838360005b83811015610b80578181015183820152602001610b68565b50505050905001848103825285818151815260200191508051906020019080838360005b83811015610bbc578181015183820152602001610ba4565b50505050905090810190601f168015610be95780820380516001836020036101000a031916815260200191505b509a505050505050505050505060405180910390f35b61028a60048036036040811015610c1557600080fd5b506001600160a01b03813581169160200135166123be565b6103a060048036036020811015610c4357600080fd5b50356001600160a01b03166123ec565b6001600160e01b0319811660009081526020819052604090205460ff165b919050565b60068054604080516020601f6002600019610100600188161502019095169490940493840181900481028201810190925282815260609390929091830182828015610d025780601f10610cd757610100808354040283529160200191610d02565b820191906000526020600020905b815481529060010190602001808311610ce557829003601f168201915b5050505050905090565b600e6020526000908152604090205460ff1681565b6000610d2c826124fc565b610d675760405162461bcd60e51b815260040180806020018281038252602c815260200180613dd3602c913960400191505060405180910390fd5b506000908152600460205260409020546001600160a01b031690565b610d8b612509565b600a546001600160a01b03908116911614610ddb576040805162461bcd60e51b81526020600482018190526024820152600080516020613e2b833981519152604482015290519081900360640190fd5b6001600160a01b03166000908152600e60205260409020805460ff19169055565b6000610e07826119cd565b9050806001600160a01b0316836001600160a01b03161415610e5a5760405162461bcd60e51b8152600401808060200182810382526021815260200180613ea36021913960400191505060405180910390fd5b806001600160a01b0316610e6c612509565b6001600160a01b03161480610e8d5750610e8d81610e88612509565b6123be565b610ec85760405162461bcd60e51b8152600401808060200182810382526038815260200180613cf96038913960400191505060405180910390fd5b610ed2838361250d565b505050565b610edf612509565b600a546001600160a01b03908116911614610f2f576040805162461bcd60e51b81526020600482018190526024820152600080516020613e2b833981519152604482015290519081900360640190fd5b6001600160a01b03166000908152601060205260409020805460ff19166001179055565b600f546001600160a01b031681565b6000610f6e600261257b565b905090565b610f7b612509565b600a546001600160a01b03908116911614610fcb576040805162461bcd60e51b81526020600482018190526024820152600080516020613e2b833981519152604482015290519081900360640190fd5b6001600160a01b03166000908152600e60205260409020805460ff19166001179055565b6001600160a01b03831630148061101357506000818152600d602052604090205415155b8061103657506001600160a01b0383166000908152600e602052604090205460ff165b8061105957506001600160a01b0382166000908152600e602052604090205460ff165b6110945760405162461bcd60e51b815260040180806020018281038252602f815260200180613c7a602f913960400191505060405180910390fd5b61109f838383612586565b6110a983826125dd565b6110b382826126ea565b610ed281612728565b6110c4612509565b600a546001600160a01b03908116911614611114576040805162461bcd60e51b81526020600482018190526024820152600080516020613e2b833981519152604482015290519081900360640190fd5b61111d81612767565b50565b6001600160a01b03821660009081526001602052604081206111429083612804565b90505b92915050565b600b54600160a01b900460ff161561119d576040805162461bcd60e51b815260206004820152601060248201526f14185d5cd8589b194e881c185d5cd95960821b604482015290519081900360640190fd5b3360009081526010602052604090205460ff16156111f8576040805162461bcd60e51b815260206004820152601360248201527243726561746f72206e6f7420617070726f766560681b604482015290519081900360640190fd5b600f5460408051631b93389760e21b8152600481018590529051600092839283926060926001600160a01b031691636e4ce25c9160248083019287929190829003018186803b15801561124a57600080fd5b505afa15801561125e573d6000803e3d6000fd5b505050506040513d6000823e601f3d908101601f1916820160405260e081101561128757600080fd5b8151602083015160408085015160608601516080870180519351959794969295919491939282019284600160201b8211156112c157600080fd5b9083019060208201858111156112d657600080fd5b82518660208202830111600160201b821117156112f257600080fd5b82525081516020918201928201910280838360005b8381101561131f578181015183820152602001611307565b5050505090500160405260200180516040519392919084600160201b82111561134757600080fd5b90830190602082018581111561135c57600080fd5b82518660208202830111600160201b8211171561137857600080fd5b82525081516020918201928201910280838360005b838110156113a557818101518382015260200161138d565b5050505090500160405260200180516040519392919084600160201b8211156113cd57600080fd5b9083019060208201858111156113e257600080fd5b8251600160201b8111828201881017156113fb57600080fd5b82525081516020918201929091019080838360005b83811015611428578181015183820152602001611410565b50505050905090810190601f1680156114555780820380516001836020036101000a031916815260200191505b506040525050509650505094509450945050816001600160a01b0316336001600160a01b0316146114bb576040805162461bcd60e51b815260206004820152600b60248201526a2737ba1031b932b0ba37b960a91b604482015290519081900360640190fd5b6114c88686858785612810565b505050505050565b60125463ffffffff1681565b600b54600160a01b900460ff161561152e576040805162461bcd60e51b815260206004820152601060248201526f14185d5cd8589b194e881c185d5cd95960821b604482015290519081900360640190fd5b3360009081526010602052604090205460ff161561158a576040805162461bcd60e51b815260206004820152601460248201527321b932b0ba37b91034b9903337b93134b23232b760611b604482015290519081900360640190fd5b8451156116695783518551600101146115e2576040805162461bcd60e51b81526020600482015260156024820152742132b732b334ba39903632b733ba341032b93937b960591b604482015290519081900360640190fd5b6000805b855181101561161f576116158682815181106115fe57fe5b602002602001015183612aa890919063ffffffff16565b91506001016115e6565b50806103e814611667576040805162461bcd60e51b815260206004820152600e60248201526d2132b732b334ba399032b93937b960911b604482015290519081900360640190fd5b505b60125463ffffffff168311156116bf576040805162461bcd60e51b8152602060048201526016602482015275546f74616c2065646974696f6e206f766572666c6f7760501b604482015290519081900360640190fd5b6000600f60009054906101000a90046001600160a01b03166001600160a01b0316631b34e19433888888886040518663ffffffff1660e01b815260040180866001600160a01b03168152602001806020018060200185815260200180602001848103845288818151815260200191508051906020019060200280838360005b8381101561175657818101518382015260200161173e565b50505050905001848103835287818151815260200191508051906020019060200280838360005b8381101561179557818101518382015260200161177d565b50505050905001848103825285818151815260200191508051906020019080838360005b838110156117d15781810151838201526020016117b9565b50505050905090810190601f1680156117fe5780820380516001836020036101000a031916815260200191505b5098505050505050505050602060405180830381600087803b15801561182357600080fd5b505af1158015611837573d6000803e3d6000fd5b505050506040513d602081101561184d57600080fd5b505190506114c8818360008787612810565b610ed283838360405180602001604052806000815250612b02565b600b546000906001600160a01b0316611891612509565b6001600160a01b031614905090565b60106020526000908152604090205460ff1681565b6000806118c3600284612bd0565b509392505050565b6118d3612509565b600a546001600160a01b03908116911614611923576040805162461bcd60e51b81526020600482018190526024820152600080516020613e2b833981519152604482015290519081900360640190fd5b61111d816124e5565b600b546001600160a01b031690565b33611945826119cd565b6001600160a01b03161461198a5760405162461bcd60e51b8152600401808060200182810382526025815260200180613ef56025913960400191505060405180910390fd5b61199381612bec565b6119a561199f826119cd565b826125dd565b60008181526014602052604081205561111d81612cb9565b600b54600160a01b900460ff1690565b600061114582604051806060016040528060298152602001613d5b6029913960029190612d67565b60176020526000908152604090205460ff1681565b60098054604080516020601f6002600019610100600188161502019095169490940493840181900481028201810190925282815260609390929091830182828015610d025780601f10610cd757610100808354040283529160200191610d02565b60006001600160a01b038216611ab25760405162461bcd60e51b815260040180806020018281038252602a815260200180613d31602a913960400191505060405180910390fd5b6001600160a01b03821660009081526001602052604090206111459061257b565b611adb612509565b600a546001600160a01b03908116911614611b2b576040805162461bcd60e51b81526020600482018190526024820152600080516020613e2b833981519152604482015290519081900360640190fd5b600a546040516000916001600160a01b0316907f8be0079c531659141344cd1fd0a4f28419497f9722a3daafe3b4186f6b6457e0908390a3600a80546001600160a01b0319169055565b600d6020526000908152604090205481565b6001600160a01b038116600090815260136020908152604091829020805483518184028101840190945280845260609392830182828015611be757602002820191906000526020600020905b815481526020019060010190808311611bd3575b50505050509050919050565b600a546001600160a01b031690565b60078054604080516020601f6002600019610100600188161502019095169490940493840181900481028201810190925282815260609390929091830182828015610d025780601f10610cd757610100808354040283529160200191610d02565b611c6b612509565b6001600160a01b0316826001600160a01b03161415611cd1576040805162461bcd60e51b815260206004820152601960248201527f4552433732313a20617070726f766520746f2063616c6c657200000000000000604482015290519081900360640190fd5b8060056000611cde612509565b6001600160a01b03908116825260208083019390935260409182016000908120918716808252919093529120805460ff191692151592909217909155611d22612509565b6001600160a01b03167f17307eab39ab6107e8899845ad3d59bd9653f200f220920489ca2b5937696c318360405180821515815260200191505060405180910390a35050565b60116020526000908152604090208054600182015460029092015490919083565b611d9584848484612b02565b50505050565b6060611da6826124fc565b611de15760405162461bcd60e51b815260040180806020018281038252602f815260200180613e74602f913960400191505060405180910390fd5b60008281526008602090815260409182902080548351601f6002600019610100600186161502019093169290920491820184900484028101840190945280845260609392830182828015611e765780601f10611e4b57610100808354040283529160200191611e76565b820191906000526020600020905b815481529060010190602001808311611e5957829003601f168201915b505060095493945050505060026000196101006001841615020190911604611e9f579050610c71565b805115611f70576009816040516020018083805460018160011615610100020316600290048015611f075780601f10611ee5576101008083540402835291820191611f07565b820191906000526020600020905b815481529060010190602001808311611ef3575b5050825160208401908083835b60208310611f335780518252601f199092019160209182019101611f14565b6001836020036101000a03801982511681845116808217855250505050505090500192505050604051602081830303815290604052915050610c71565b6009611f7b84612d7e565b6040516020018083805460018160011615610100020316600290048015611fd95780601f10611fb7576101008083540402835291820191611fd9565b820191906000526020600020905b815481529060010190602001808311611fc5575b5050825160208401908083835b602083106120055780518252601f199092019160209182019101611fe6565b6001836020036101000a03801982511681845116808217855250505050505090500192505050604051602081830303815290604052915050919050565b61204a612509565b600a546001600160a01b0390811691161461209a576040805162461bcd60e51b81526020600482018190526024820152600080516020613e2b833981519152604482015290519081900360640190fd5b6012805463ffffffff191663ffffffff92909216919091179055565b6120be612509565b600a546001600160a01b0390811691161461210e576040805162461bcd60e51b81526020600482018190526024820152600080516020613e2b833981519152604482015290519081900360640190fd5b6001600160a01b03166000908152601060205260409020805460ff19169055565b6000806000806060806060600f60009054906101000a90046001600160a01b03166001600160a01b0316636e4ce25c896040518263ffffffff1660e01b81526004018082815260200191505060006040518083038186803b15801561219357600080fd5b505afa1580156121a7573d6000803e3d6000fd5b505050506040513d6000823e601f3d908101601f1916820160405260e08110156121d057600080fd5b8151602083015160408085015160608601516080870180519351959794969295919491939282019284600160201b82111561220a57600080fd5b90830190602082018581111561221f57600080fd5b82518660208202830111600160201b8211171561223b57600080fd5b82525081516020918201928201910280838360005b83811015612268578181015183820152602001612250565b5050505090500160405260200180516040519392919084600160201b82111561229057600080fd5b9083019060208201858111156122a557600080fd5b82518660208202830111600160201b821117156122c157600080fd5b82525081516020918201928201910280838360005b838110156122ee5781810151838201526020016122d6565b5050505090500160405260200180516040519392919084600160201b82111561231657600080fd5b90830190602082018581111561232b57600080fd5b8251600160201b81118282018810171561234457600080fd5b82525081516020918201929091019080838360005b83811015612371578181015183820152602001612359565b50505050905090810190601f16801561239e5780820380516001836020036101000a031916815260200191505b506040525050509650965096509650965096509650919395979092949650565b6001600160a01b03918216600090815260056020908152604080832093909416825291909152205460ff1690565b6123f4612509565b600a546001600160a01b03908116911614612444576040805162461bcd60e51b81526020600482018190526024820152600080516020613e2b833981519152604482015290519081900360640190fd5b6001600160a01b0381166124895760405162461bcd60e51b8152600401808060200182810382526026815260200180613c546026913960400191505060405180910390fd5b600a546040516001600160a01b038084169216907f8be0079c531659141344cd1fd0a4f28419497f9722a3daafe3b4186f6b6457e090600090a3600a80546001600160a01b0319166001600160a01b0392909216919091179055565b80516124f8906009906020840190613b0b565b5050565b6000611145600283612e59565b3390565b600081815260046020526040902080546001600160a01b0319166001600160a01b0384169081179091558190612542826119cd565b6001600160a01b03167f8c5be1e5ebec7d5bd14f71427d1e84f3dd0314c0f7b2291e5b200ac8c7c3b92560405160405180910390a45050565b600061114582612e65565b612597612591612509565b82612e69565b6125d25760405162461bcd60e51b8152600401808060200182810382526031815260200180613ec46031913960400191505060405180910390fd5b610ed2838383612f0d565b6001600160a01b038216600090815260136020526040812054612601906001613059565b60008381526014602052604090205490915080821461269c576001600160a01b038416600090815260136020526040812080548490811061263e57fe5b906000526020600020015490508060136000876001600160a01b03166001600160a01b03168152602001908152602001600020838154811061267c57fe5b600091825260208083209091019290925591825260149052604090208190555b6001600160a01b03841660009081526013602052604090208054806126bd57fe5b60008281526020808220830160001990810183905590920190925593815260149093525050604081205550565b6001600160a01b0390911660009081526013602081815260408084208054868652601484529185208290559282526001810183559183529091200155565b6000818152600d602052604090205461111d576000818152600d6020526040902054612755906001612aa8565b6000828152600d602052604090205550565b6001600160a01b0381166127ac5760405162461bcd60e51b815260040180806020018281038252602d815260200180613d84602d913960400191505060405180910390fd5b6040516001600160a01b038216906000907f74da04524d50c64947f5dd5381ef1a4dca5cba8ed1d816243f9e48aa0b5617ed908290a3600b80546001600160a01b0319166001600160a01b0392909216919091179055565b6000611142838361309b565b8161281b8585612aa8565b1115612867576040805162461bcd60e51b81526020600482015260166024820152752a37ba30b61039bab838363c9032bc31b2b2b232b21760511b604482015290519081900360640190fd5b60005b848110156129e75761287c600c6130ff565b6000612888600c612e65565b905060006128a1600161289b8886612aa8565b90612aa8565b90506128ab613b89565b506040805160608101825289815260208082018481528284018981526000878152601190935293909120825181559051600182015591516002909201919091556128f53384613108565b6128ff8386613236565b61290883613299565b61291233846126ea565b7f264009150e680b327677f372c2324923bd12b3b718ebd62d6cf6d3bb3179d8f9893385858a8a60405180878152602001866001600160a01b0316815260200185815260200184815260200183815260200180602001828103825283818151815260200191508051906020019080838360005b8381101561299d578181015183820152602001612985565b50505050905090810190601f1680156129ca5780820380516001836020036101000a031916815260200191505b5097505050505050505060405180910390a150505060010161286a565b50600f5460408051632b59455760e11b8152600481018890526024810187905290516001600160a01b03909216916356b28aae9160448082019260009290919082900301818387803b158015612a3c57600080fd5b505af1158015612a50573d6000803e3d6000fd5b505050507f68091494c05ef788e42594f810ab4fc09c48eba85b5792b56e96ff8f1a71c9c085612a898686612aa890919063ffffffff16565b6040805192835260208301919091528051918290030190a15050505050565b600082820183811015611142576040805162461bcd60e51b815260206004820152601b60248201527f536166654d6174683a206164646974696f6e206f766572666c6f770000000000604482015290519081900360640190fd5b6001600160a01b038416301480612b2657506000828152600d602052604090205415155b80612b4957506001600160a01b0384166000908152600e602052604090205460ff165b80612b6c57506001600160a01b0383166000908152600e602052604090205460ff165b612ba75760405162461bcd60e51b815260040180806020018281038252602f815260200180613c7a602f913960400191505060405180910390fd5b612bb3848484846132dd565b612bbd84836125dd565b612bc783836126ea565b611d9582612728565b6000808080612bdf8686613335565b9097909650945050505050565b6000612bf7826119cd565b9050612c0581600084610ed2565b612c1060008361250d565b6000828152600860205260409020546002600019610100600184161502019091160415612c4e576000828152600860205260408120612c4e91613baa565b6001600160a01b0381166000908152600160205260409020612c7090836133b0565b50612c7c6002836133bc565b5060405182906000906001600160a01b038416907fddf252ad1be2c89b69c2b068fc378daa952ba7f163c4a11628f55a4df523b3ef908390a45050565b601554600090612cca906001613059565b60008381526016602052604081205460158054939450909284908110612cec57fe5b906000526020600020015490508060158381548110612d0757fe5b60009182526020808320909101929092558281526016909152604090208290556015805480612d3257fe5b600190038181906000526020600020016000905590556000601660008681526020019081526020016000208190555050505050565b6000612d748484846133c8565b90505b9392505050565b606081612da357506040805180820190915260018152600360fc1b6020820152610c71565b8160005b8115612dbb57600101600a82049150612da7565b60608167ffffffffffffffff81118015612dd457600080fd5b506040519080825280601f01601f191660200182016040528015612dff576020820181803683370190505b50859350905060001982015b8315612e5057600a840660300160f81b82828060019003935081518110612e2e57fe5b60200101906001600160f81b031916908160001a905350600a84049350612e0b565b50949350505050565b60006111428383613492565b5490565b6000612e74826124fc565b612eaf5760405162461bcd60e51b815260040180806020018281038252602c815260200180613ccd602c913960400191505060405180910390fd5b6000612eba836119cd565b9050806001600160a01b0316846001600160a01b03161480612ef55750836001600160a01b0316612eea84610d21565b6001600160a01b0316145b80612f055750612f0581856123be565b949350505050565b826001600160a01b0316612f20826119cd565b6001600160a01b031614612f655760405162461bcd60e51b8152600401808060200182810382526029815260200180613e4b6029913960400191505060405180910390fd5b6001600160a01b038216612faa5760405162461bcd60e51b8152600401808060200182810382526024815260200180613ca96024913960400191505060405180910390fd5b612fb5838383610ed2565b612fc060008261250d565b6001600160a01b0383166000908152600160205260409020612fe290826133b0565b506001600160a01b038216600090815260016020526040902061300590826134aa565b50613012600282846134b6565b5080826001600160a01b0316846001600160a01b03167fddf252ad1be2c89b69c2b068fc378daa952ba7f163c4a11628f55a4df523b3ef60405160405180910390a4505050565b600061114283836040518060400160405280601e81526020017f536166654d6174683a207375627472616374696f6e206f766572666c6f7700008152506134cc565b815460009082106130dd5760405162461bcd60e51b8152600401808060200182810382526022815260200180613c006022913960400191505060405180910390fd5b8260000182815481106130ec57fe5b9060005260206000200154905092915050565b80546001019055565b6001600160a01b038216613163576040805162461bcd60e51b815260206004820181905260248201527f4552433732313a206d696e7420746f20746865207a65726f2061646472657373604482015290519081900360640190fd5b61316c816124fc565b156131be576040805162461bcd60e51b815260206004820152601c60248201527f4552433732313a20746f6b656e20616c7265616479206d696e74656400000000604482015290519081900360640190fd5b6131ca60008383610ed2565b6001600160a01b03821660009081526001602052604090206131ec90826134aa565b506131f9600282846134b6565b5060405181906001600160a01b038416906000907fddf252ad1be2c89b69c2b068fc378daa952ba7f163c4a11628f55a4df523b3ef908290a45050565b61323f826124fc565b61327a5760405162461bcd60e51b815260040180806020018281038252602c815260200180613dff602c913960400191505060405180910390fd5b60008281526008602090815260409091208251610ed292840190613b0b565b601580546000838152601660205260408120829055600182018355919091527f55f448fdea98c4d29eb340757ef0a66cd03dbb9538908a6a81d96026b71ec4750155565b6132ee6132e8612509565b83612e69565b6133295760405162461bcd60e51b8152600401808060200182810382526031815260200180613ec46031913960400191505060405180910390fd5b611d9584848484613526565b8154600090819083106133795760405162461bcd60e51b8152600401808060200182810382526022815260200180613db16022913960400191505060405180910390fd5b600084600001848154811061338a57fe5b906000526020600020906002020190508060000154816001015492509250509250929050565b60006111428383613578565b6000611142838361363e565b600082815260018401602052604081205482816134635760405162461bcd60e51b81526004018080602001828103825283818151815260200191508051906020019080838360005b83811015613428578181015183820152602001613410565b50505050905090810190601f1680156134555780820380516001836020036101000a031916815260200191505b509250505060405180910390fd5b5084600001600182038154811061347657fe5b9060005260206000209060020201600101549150509392505050565b60009081526001919091016020526040902054151590565b60006111428383613712565b6000612d7484846001600160a01b03851661375c565b6000818484111561351e5760405162461bcd60e51b8152602060048201818152835160248401528351909283926044909101919085019080838360008315613428578181015183820152602001613410565b505050900390565b613531848484612f0d565b61353d848484846137f3565b611d955760405162461bcd60e51b8152600401808060200182810382526032815260200180613c226032913960400191505060405180910390fd5b6000818152600183016020526040812054801561363457835460001980830191908101906000908790839081106135ab57fe5b90600052602060002001549050808760000184815481106135c857fe5b6000918252602080832090910192909255828152600189810190925260409020908401905586548790806135f857fe5b60019003818190600052602060002001600090559055866001016000878152602001908152602001600020600090556001945050505050611145565b6000915050611145565b60008181526001830160205260408120548015613634578354600019808301919081019060009087908390811061367157fe5b906000526020600020906002020190508087600001848154811061369157fe5b6000918252602080832084546002909302019182556001938401549184019190915583548252898301905260409020908401905586548790806136d057fe5b60008281526020808220600260001990940193840201828155600190810183905592909355888152898201909252604082209190915594506111459350505050565b600061371e8383613492565b61375457508154600181810184556000848152602080822090930184905584548482528286019093526040902091909155611145565b506000611145565b6000828152600184016020526040812054806137c1575050604080518082018252838152602080820184815286546001818101895560008981528481209551600290930290950191825591519082015586548684528188019092529290912055612d77565b828560000160018303815481106137d457fe5b9060005260206000209060020201600101819055506000915050612d77565b6000613807846001600160a01b031661395b565b61381357506001612f05565b6060613921630a85bd0160e11b613828612509565b88878760405160240180856001600160a01b03168152602001846001600160a01b0316815260200183815260200180602001828103825283818151815260200191508051906020019080838360005b8381101561388f578181015183820152602001613877565b50505050905090810190601f1680156138bc5780820380516001836020036101000a031916815260200191505b5095505050505050604051602081830303815290604052906001600160e01b0319166020820180516001600160e01b038381831617835250505050604051806060016040528060328152602001613c22603291396001600160a01b0388169190613994565b9050600081806020019051602081101561393a57600080fd5b50516001600160e01b031916630a85bd0160e11b1492505050949350505050565b6000813f7fc5d2460186f7233c927e7db2dcc703c0e500b653ca82273b7bfad8045d85a470818114801590612f05575050151592915050565b6060612d74848460008560606139a98561395b565b6139fa576040805162461bcd60e51b815260206004820152601d60248201527f416464726573733a2063616c6c20746f206e6f6e2d636f6e7472616374000000604482015290519081900360640190fd5b60006060866001600160a01b031685876040518082805190602001908083835b60208310613a395780518252601f199092019160209182019101613a1a565b6001836020036101000a03801982511681845116808217855250505050505090500191505060006040518083038185875af1925050503d8060008114613a9b576040519150601f19603f3d011682016040523d82523d6000602084013e613aa0565b606091505b50915091508115613ab4579150612f059050565b805115613ac45780518082602001fd5b60405162461bcd60e51b8152602060048201818152865160248401528651879391928392604401919085019080838360008315613428578181015183820152602001613410565b828054600181600116156101000203166002900490600052602060002090601f016020900481019282601f10613b4c57805160ff1916838001178555613b79565b82800160010185558215613b79579182015b82811115613b79578251825591602001919060010190613b5e565b50613b85929150613bea565b5090565b60405180606001604052806000815260200160008152602001600081525090565b50805460018160011615610100020316600290046000825580601f10613bd0575061111d565b601f01602090049060005260206000209081019061111d91905b5b80821115613b855760008155600101613beb56fe456e756d657261626c655365743a20696e646578206f7574206f6620626f756e64734552433732313a207472616e7366657220746f206e6f6e20455243373231526563656976657220696d706c656d656e7465724f776e61626c653a206e6577206f776e657220697320746865207a65726f20616464726573734c696d6974206669727374207472616e73666572206d7573742073616c65206f6e20617274676565206d61726b65744552433732313a207472616e7366657220746f20746865207a65726f20616464726573734552433732313a206f70657261746f7220717565727920666f72206e6f6e6578697374656e7420746f6b656e4552433732313a20617070726f76652063616c6c6572206973206e6f74206f776e6572206e6f7220617070726f76656420666f7220616c6c4552433732313a2062616c616e636520717565727920666f7220746865207a65726f20616464726573734552433732313a206f776e657220717565727920666f72206e6f6e6578697374656e7420746f6b656e6f70657261746f723a207a65726f206164647265737320676976656e20666f72206e6577206f70657261746f72456e756d657261626c654d61703a20696e646578206f7574206f6620626f756e64734552433732313a20617070726f76656420717565727920666f72206e6f6e6578697374656e7420746f6b656e4552433732314d657461646174613a2055524920736574206f66206e6f6e6578697374656e7420746f6b656e4f776e61626c653a2063616c6c6572206973206e6f7420746865206f776e65724552433732313a207472616e73666572206f6620746f6b656e2074686174206973206e6f74206f776e4552433732314d657461646174613a2055524920717565727920666f72206e6f6e6578697374656e7420746f6b656e4552433732313a20617070726f76616c20746f2063757272656e74206f776e65724552433732313a207472616e736665722063616c6c6572206973206e6f74206f776e6572206e6f7220617070726f7665644552433732313a206275726e206f6620746f6b656e2074686174206973206e6f74206f776ea26469706673582212202369945c95f54017544a0cc1415ac8a3ed4f92d6b926614588713491d513179764736f6c634300060c0033",
  "linkReferences": {},
  "deployedLinkReferences": {}
}